:020000040800F2
:10000000680600208901000899040008E10300083F
:10001000E5030008430200084D0B00080000000043
:10002000000000000000000000000000C105000802
:1000300047020008000000007D050008AD0600082A
:10004000A3010008A3010008A3010008A301000800
:10005000A3010008A3010008A3010008A3010008F0
:10006000A3010008A3010008A3010008A3010008E0
:10007000A3010008A3010008A3010008A3010008D0
:10008000A3010008A3010008A3010008A3010008C0
:10009000A3010008A3010008A3010008A3010008B0
:1000A000A3010008A3010008A3010008A3010008A0
:1000B00011070008A3010008A3010008A30100081C
:1000C000A3010008A3010008A3010008A301000880
:1000D000A3010008A3010008A3010008A301000870
:1000E000A3010008A3010008A301000800F002F822
:1000F00000F03AF80AA090E8000C82448344AAF188
:100100000107DA4501D100F02FF8AFF2090EBAE885
:100110000F0013F0010F18BFFB1A43F0010318473B
:10012000580A0000780A0000103A24BF78C878C145
:10013000FAD8520724BF30C830C144BF04680C60ED
:10014000704700000023002400250026103A28BF35
:1001500078C1FBD8520728BF30C148BF0B60704739
:100160001FB51FBD10B510BD00F031F81146FFF7E7
:10017000F7FF00F0EDFC00F04FF803B4FFF7F2FFDB
:1001800003BC00F057F800000948804709480047C1
:10019000FEE7FEE7FEE7FEE7FEE7FEE7FEE7FEE737
:1001A000FEE7FEE704480549054A064B7047000094
:1001B000B1060008ED000008680000206806002075
:1001C000680200206802002070477047704775463B
:1001D00000F02CF8AE4605006946534620F00700B3
:1001E000854618B020B5FFF7DDFFBDE820404FF091
:1001F00000064FF000074FF000084FF0000B21F011
:100200000701AC46ACE8C009ACE8C009ACE8C009DD
:10021000ACE8C0098D46704710B50446AFF30080C6
:100220002046BDE81040FFF7A8BF00000048704717
:100230000400002001491820ABBEFEE726000200A2
:10024000704700BFFEE7704700B5034603E04FF478
:100250007A7000F011F8181EA3F10103F7D100BD68
:1002600010B5044603E04FF47A70FFF7EDFF201E4F
:10027000A4F10104F7D110BD00EBC001C9004FF09B
:10028000E0225161002191610521116100BF4FF011
:10029000E021096901F480310029F8D004214FF0F0
:1002A000E022116170472DE9F04102460025002649
:1002B000002000230024002791F803C00CF00F0554
:1002C00091F803C00CF0100CBCF1000F03D091F8B2
:1002D00002C04CEA050591F800C0BCF1000F31D016
:1002E000146800202BE04FF0010C0CFA00F3B1F879
:1002F00000C00CEA03069E4220D183004FF00F0C91
:100300000CFA03F7BC4305FA03FC4CEA040491F829
:1003100003C0BCF1280F06D14FF0010C0CFA00FC11
:10032000C2F814C00AE091F803C0BCF1480F05D12F
:100330004FF0010C0CFA00FCC2F810C0401C082859
:10034000D1D31460B1F800C0BCF1FF0F34DD5468A4
:1003500000202EE000F1080C4FF0010808FA0CF321
:10036000B1F800C00CEA03069E4221D183004FF091
:100370000F0C0CFA03F7BC4305FA03FC4CEA040427
:1003800091F803C0BCF1280F05D100F1080C08FA60
:100390000CF8C2F8148091F803C0BCF1480F07D1E3
:1003A00000F1080C4FF0010808FA0CF8C2F81080B0
:1003B000401C0828CED35460BDE8F08141617047ED
:1003C0000161704710B5054800F0E0F904460021CE
:1003D000024800F066FB204610BD0000000400400B
:1003E00000BFFEE700BFFEE770B504460D4620687B
:1003F000B0F5E15F02DD4FF4E1502060206810F5B8
:10040000E15F01DA164820602868B0F5E15F02DD9F
:100410004FF4E1502860286810F5E15F01DA1048D8
:1004200028604CB14FF400610E48FFF7C7FF002170
:100430000D4800F011FA08E04FF400610948FFF799
:10044000BFFF0221084800F007FA208881B2064861
:1004500000F023FB288881B2034800F020FB70BD28
:10046000E0E3FFFF000C0140002C014008B5012132
:10047000082000F095F810208DF8030040F60340A6
:10048000ADF8000003208DF8020069460148FFF72F
:100490000AFF08BD000C01407047000000B589B09C
:1004A0000121C80200F06CF80121042000F078F866
:1004B00018208DF823004FF47060ADF82000032061
:1004C0008DF8220008A92B48FFF7EDFE2A4800F01E
:1004D00071F90020ADF81A00ADF8160040F2E730CF
:1004E000ADF8180041F61F40ADF8140000208DF85B
:1004F0001C0005A9204800F0D7FA01A800F0C3FAB3
:100500006020ADF804000020ADF80C000120ADF82B
:1005100006000020ADF80A0001A9174800F050F9C4
:1005200001A9154800F0AAF901A9134800F006FA3C
:1005300001A9114800F05CFA01210F4800F0FCF815
:1005400001210D4800F091F901210B4800F0E8F974
:100550000121094800F042FA0121074800F086FA1B
:100560000121054800F0F7F80121034800F0FFF8E9
:1005700009B000BD00080140002C01407047000098
:1005800029B1064AD2690243044BDA6104E0034A06
:10059000D2698243014BDA617047000000100240CB
:1005A00029B1064A92690243044B9A6104E0034A66
:1005B00092698243014B9A6170470000001002402B
:1005C000704710B500F002F810BD00000CB5002017
:1005D000019000903348006840F480303149086051
:1005E00000BF3048006800F4003000900198401CC3
:1005F0000190009818B90198B0F5A06FF1D1294881
:10060000006800F4003010B10120009001E00020EB
:1006100000900098012843D12348006840F0100062
:10062000214908600846006820F003000860084679
:10063000006840F0020008601A48406819494860A4
:100640000846406848600846406840F4806048605A
:100650000846406820F47C1048600846406840F432
:10066000E81048600846006840F08070086000BFED
:100670000C48006800F000700028F9D00948406874
:1006800020F00300074948600846406840F0020037
:10069000486000BF0348406800F00C000828F9D10A
:1006A0000CBD000000100240002002407047000016
:1006B00010B51348006840F0010011490860084671
:1006C0004068104908400E494860084600680E49D5
:1006D00008400B4908600846006820F48020086044
:1006E0000846406820F4FE0048604FF41F00886010
:1006F000FFF767FF4FF000600449086010BD00007D
:10070000001002400000FFF8FFFFF6FE08ED00E0D9
:1007100010B50121880700F03CF8012808D1FFF747
:1007200051FE00B2034908800121880700F010F84B
:1007300010BD00000000002021B1028842F08002BC
:10074000028004E002884FF67F731A4002807047EF
:10075000CA430282704721B1028842F0010202803E
:1007600004E002884FF6FE731A400280704731B1F0
:10077000B0F8442042F40042A0F8442005E0B0F86C
:100780004420C2F30E02A0F8442070470146888C32
:10079000704730B50246002000230024158A05EA80
:1007A0000103958905EA010413B10CB1012000E0B1
:1007B000002030BD01894FF6F87211400181704769
:1007C00070B5002400220023058C4FF6FE763540DC
:1007D0000584028C8388048B4FF68F752C40B51EE0
:1007E0002C400D882C43751E2A400D892A434D88C4
:1007F0002A43144DA8420BD0134DA84208D0134DE4
:10080000A84205D0124DA84202D0124DA84213D1E1
:100810004FF6F7752A404D892A434FF6FB752A405B
:100820008D882A434FF6FF652B404FF6FF552B402E
:100830008D892B43CD892B4383800483CD88858686
:10084000028470BD002C0140003401400040014092
:1008500000440140004801400A460021018C4FF647
:10086000FD7319401143018470470A460021018B32
:100870004FF6F773194011430183704770B5002498
:1008800000220023058C4FF6EF7635400584028C5C
:100890008388048B48F6FF752C404FF6FF452C40AB
:1008A0000D884FF6FF7606EA05252C434FF6DF75D7
:1008B0002A400D8906EA05152A434D8806EA0515E2
:1008C0002A43154DA84202D0144DA8421DD14FF61F
:1008D0007F752A404D894FF6FF7606EA05152A43B3
:1008E0004FF6BF752A408D8806EA05152A434FF654
:1008F000FF352B404FF2FF752B408D8906EA8505A9
:100900002B43CD8906EA85052B4383800483CD885C
:100910000587028470BD0000002C014000340140B6
:100920000A460021018B4FF2FF7319404FF6FF7307
:1009300003EA0223194301837047000070B50024C5
:1009400000220023058C4FF6FF6635400584028C9B
:100950008388848B4FF68F752C404FF6FC752C40A6
:100960000D882C434FF6FF552A400D894FF6FF7630
:1009700006EA05252A434D8806EA05252A43154D32
:10098000A84202D0144DA8421DD14FF2FF752A4053
:100990004D894FF6FF7606EA05252A434FF6FF35C7
:1009A0002A408D8806EA05252A434EF6FF752B401E
:1009B0004DF6FF752B408D8906EA05152B43CD8931
:1009C00006EA05152B4383808483CD8885870284BE
:1009D00070BD0000002C0140003401400A46002197
:1009E000818B4FF6F77319401143818370470000E4
:1009F00070B5002200230024058C4EF6FF763540AA
:100A00000584038C8488828B48F6FF752A404FF654
:100A1000FF452A400D884FF6FF7606EA05252A4352
:100A20004DF6FF752B400D8906EA05352B434D88A1
:100A300006EA05352B430B4DA84202D00A4DA842C9
:100A400008D14BF6FF752C408D894FF6FF7606EAEC
:100A500085152C4384808283CD88A0F84050038480
:100A600070BD0000002C0140003401400A46002106
:100A7000818B4FF2FF7319404FF6FF7303EA022395
:100A80001943818370470021018041808180C180AA
:100A9000018141818181C1817047818670470187D1
:100AA0007047818470470000002202881D4B9842E5
:100AB0000ED01D4B98420BD0B0F1804F08D01B4B8D
:100AC000984205D01A4B984202D01A4B984204D152
:100AD0004FF68F731A404B881A43174B984207D032
:100AE000164B984204D04FF6FF431A40CB881A4366
:100AF00002808B8883850B8803850A4B98420BD034
:100B0000094B984208D00E4B984205D00D4B9842A5
:100B100002D00D4B984201D10B7A038601238382C8
:100B200070470000002C01400034014000040040E8
:100B300000080040000C004000100040001400407D
:100B400000400140004401400048014000BFFEE772
:100B5000FFF7A4FCFFF78AFC0BE04FF47A7108461C
:100B6000FFF742FC0220FFF77BFB02490846FFF734
:100B70003BFCF2E718FCFFFF980B00080000002088
:100B800004000000280100089C0B0008040000205D
:0C0B9000640600004401000800000000A2
:04000005080000ED02
:00000001FF
