:020000040800F2
:100000001007002089010008F90C000859080008B1
:10001000650A00082F030008771F00080000000091
:100020000000000000000000000000006D12000849
:1000300033030008000000002912000859130008CB
:10004000A3010008A3010008A3010008A301000800
:10005000A3010008A3010008A3010008A3010008F0
:10006000A3010008A3010008A3010008A3010008E0
:10007000A3010008A3010008A3010008A3010008D0
:10008000A3010008A3010008A3010008A3010008C0
:10009000A3010008A3010008A3010008A3010008B0
:1000A000A3010008A3010008A3010008A3010008A0
:1000B000FD150008D9160008A3010008A3010008D7
:1000C000A3010008A3010008A3010008A301000880
:1000D000A3010008E51C0008A3010008A301000813
:1000E000A3010008A3010008A301000800F002F822
:1000F00000F03AF80AA090E8000C82448344AAF188
:100100000107DA4501D100F02FF8AFF2090EBAE885
:100110000F0013F0010F18BFFB1A43F0010318473B
:100120007C3000009C300000103A24BF78C878C1B1
:10013000FAD8520724BF30C830C144BF04680C60ED
:10014000704700000023002400250026103A28BF35
:1001500078C1FBD8520728BF30C148BF0B60704739
:100160001FB51FBD10B510BD00F0A8F81146FFF770
:10017000F7FF01F06FFF00F0C6F803B4FFF7F2FFDE
:1001800003BC00F0CDF8000009488047094800474B
:10019000FEE7FEE7FEE7FEE7FEE7FEE7FEE7FEE737
:1001A000FEE7FEE704480549054A064B7047000094
:1001B0005D130008ED00000810010020100700206A
:1001C000100300201003002053EA020C00F06980A5
:1001D0002DE9F04B4FF00006002B1FBFB3FA83F55B
:1001E00003FA05F424FA05F65E4012BF1643B2FA8C
:1001F00082F502FA05F4C5F120051EBF22FA05FCBE
:1002000044EA0C04203556EA044C4FEA144418BF63
:10021000641C4FF000084FF00009904271EB030C92
:1002200039D3002919BFB1FA81F701FA07F6B0FAFC
:1002300080F700FA07F6C7F120071EBF20FA07FC77
:1002400046EA0C062037B6FBF4FCA7EB0507103F87
:1002500007F01F0BCBF120060CFA0BFB2CFA06F66D
:1002600044BFB3460026202FA4BF5E464FF0000BCC
:100270005BEA060C08BF4FF0010B19EB0B09ABFB57
:10028000027C48EB0608C01B06FB02CC0BFB03CC30
:1002900071EB0C01C1E70B46024641464846BDE8FA
:1002A000F08B13B54FF000004FF00001AFF300806A
:1002B000BDE81C407047704770477047754600F0B6
:1002C0002BF8AE4605006946534620F007008546E8
:1002D00018B020B5FFF766FFBDE820404FF00006DC
:1002E0004FF000074FF000084FF0000B21F007011E
:1002F000AC46ACE8C009ACE8C009ACE8C009ACE861
:10030000C0098D46704710B50446AFF30080204603
:10031000BDE81040FFF731BF00487047AC00002037
:1003200001491820ABBEFEE726000200704700BF5F
:10033000FEE7704700EBC001C9004FF0E0225161B9
:10034000002191610521116100BF4FF0E021096991
:1003500001F480310029F8D004214FF0E02211612E
:10036000704700002DE9F05F04460D46344E2946E3
:10037000204602F06DFB074602F04AFA3149086058
:100380003148006802F080FA8246314602F094FA61
:1003900080462C48006802F077FA824631464FF0DA
:1003A0007E5002F05FFB8346514602F085FA81469B
:1003B000414602F0CBF9074602F02AFA23490860C9
:1003C0000846006820490860214800681F490968FC
:1003D00008441F4908600846006842F210718842CC
:1003E00001DD084608E01A4800681A49884201DA27
:1003F000084601E01648006815490860084600688C
:1004000002F042FA824614480168504602F054FA5B
:1004100080460E48006802F037FA82460F480168AD
:10042000504602F049FA8146414602F08FF90746EC
:1004300002F0EEF90A49086008460068BDE8F09F3E
:100440003333333F58000020600000205C00002060
:1004500064000020F0D8FFFF480000204400002086
:100460005400002008B54FF4A06000F07FFC1C2071
:100470008DF8000001208DF8030002208DF80100A6
:100480008DF80200684600F039FC08BD00B587B061
:100490000121022000F0CAFE0121042000F0D6FE56
:1004A00048208DF81B00C020ADF8180003208DF8FF
:1004B0001A0006A93F4800F0E9F80020ADF8120044
:1004C000ADF80E004FF6FF70ADF810000020ADF84B
:1004D0000C008DF8140003A9374801F0B1FB684601
:1004E00001F0CCF90020ADF800000F20ADF80800B5
:1004F0006946314801F06CF90420ADF800000F2086
:10050000ADF8080069462C4801F062F900231A464C
:100510000321294801F027F90121274801F008F9B2
:100520000121042000F082FE0121082000F08EFE4F
:1005300048208DF81B00C020ADF8180003208DF86E
:100540001A0006A91D4800F0A1F80020ADF812001D
:10055000ADF80E004FF6FF70ADF810000020ADF8BA
:100560000C008DF8140003A9154801F069FB6846DA
:1005700001F084F90020ADF800000F20ADF808006C
:1005800069460F4801F024F90420ADF800000F205F
:10059000ADF8080069460A4801F01AF900231A4626
:1005A0000321074801F0DFF80121054801F0C0F8F8
:1005B00007B000BD0008014000040040000C0140ED
:1005C000000800402DE9FE4F07460C4615461E4622
:1005D000DFF89C806019274908602748006802F00E
:1005E00053F94146029002F067F9824621480068BB
:1005F00002F04AF9414602904FF07E5002F032FA82
:100600000190029902F058F98346514602F09EF893
:10061000814602F0FDF8194908600846006816494D
:10062000086017480168384602F046F931460290E2
:100630001448006802F040F901901048006802F088
:1006400023F900900E480168009802F035F98346BE
:10065000019902F07BF88246029902F003FA814682
:1006600002F0D6F80849086008460068BDE8FE8F29
:100670003333333F7C0000208400002080000020C2
:100680004C00002050000020780000202DE9F041AF
:10069000024600250026002000230024002791F8B0
:1006A00003C00CF00F0591F803C00CF0100CBCF166
:1006B000000F03D091F802C04CEA050591F800C084
:1006C000BCF1000F31D0146800202BE04FF0010C7A
:1006D0000CFA00F3B1F800C00CEA03069E4220D1E8
:1006E00083004FF00F0C0CFA03F7BC4305FA03FC30
:1006F0004CEA040491F803C0BCF1280F06D14FF076
:10070000010C0CFA00FCC2F814C00AE091F803C016
:10071000BCF1480F05D14FF0010C0CFA00FCC2F8F7
:1007200010C0401C0828D1D31460B1F800C0BCF13F
:10073000FF0F34DD546800202EE000F1080C4FF06C
:10074000010808FA0CF3B1F800C00CEA03069E4257
:1007500021D183004FF00F0C0CFA03F7BC4305FACC
:1007600003FC4CEA040491F803C0BCF1280F05D146
:1007700000F1080C08FA0CF8C2F8148091F803C0D4
:10078000BCF1480F07D100F1080C4FF0010808FA3E
:100790000CF8C2F81080401C0828CED35460BDE885
:1007A000F0810246002093680B400BB1012000E06D
:1007B0000020704741617047016170470AB10161D3
:1007C00000E041617047000070B50546032D02D07E
:1007D000042D12D108E00A4800F0E6FF04B200211F
:1007E000074801F0FEF908E0064800F0DDFF04B21A
:1007F0000021044801F0F5F900BF00BF204670BD9C
:10080000000400400008004008B50121082000F065
:100810001DFD10208DF803002020ADF800000320FE
:100820008DF8020069460B48FFF730FF28208DF84D
:1008300003001020ADF8000069460648FFF726FFC8
:10084000002220210348FFF7B9FF0F20FFF772FDB8
:1008500008BD0000000C014000BFFEE72DE9F04F8D
:1008600089B00646894692469B463B2000F0C4F874
:1008700004463C2000F0C0F8054645EA042000B2DA
:100880000890089802F000F84FF08041009002F0C4
:1008900013F8019001F02EFF0746464A464B01F03F
:1008A0002BFE0022454BCDE9020101F0CDFCCDE944
:1008B000040101F097FC3060306880F00040306047
:1008C0003D2000F099F804463E2000F095F80546DA
:1008D00045EA042000B20790079801F0D5FF4FF0D9
:1008E0008041009001F0E8FF019001F003FF314AE0
:1008F000314BCDE9020101F0FFFD074600222F4BED
:1009000001F0A2FCCDE9040101F06CFCC9F8000083
:100910003F2000F071F80446402000F06DF80546D5
:1009200045EA042000B20690069801F0ADFF4FF0B2
:100930008041009001F0C0FF019001F0DBFE07460E
:100940001C4A1D4B01F0D8FD00221C4BCDE90201D1
:1009500001F07AFCCDE9040101F044FCCAF8000082
:10096000432000F049F80446442000F045F80546CD
:1009700045EA042000B2ABF80000452000F03CF846
:100980000446462000F038F8054645EA042001B246
:1009900012980180472000F02FF80446482000F00C
:1009A0002BF8054645EA042001B21398018009B0EE
:1009B000BDE8F08F9A9999999999234000FBDF40FF
:1009C00010B500F0EFF801216B2000F034F80021A1
:1009D0006C2000F030F80921192000F02CF80621D5
:1009E0001A2000F028F818211B2000F024F800211C
:1009F0001C2000F020F810BD70B5044600F046F948
:100A0000D02000F02EF900F0F7F8204600F029F988
:100A100000F0F2F800F03AF9D12000F022F900F0ED
:100A2000EBF800F0F8F80546012000F00EF900F0B0
:100A30003BF9284670BD70B505460C4600F026F916
:100A4000D02000F00EF900F0D7F8284600F009F9A0
:100A500000F0D2F8204600F004F900F0CDF800F0E4
:100A600023F970BD00BFFEE770B504460D460026B1
:100A70002068B0F5E15F02DD4FF4E15020602068AE
:100A800010F5E15F01DA394820602868B0F5E15FD0
:100A900002DD4FF4E1502860286810F5E15F01DACB
:100AA000324828602068002812DD4FF40061304889
:100AB000FFF782FE02212E48FFF77EFE02212D481D
:100AC00000F040FF02212B4801F00AF8266812E0EE
:100AD0004FF400612648FFF76DFE02212448FFF71E
:100AE00069FE0021234800F02DFF0021214800F07D
:100AF000F7FF26687642B1B21E4801F069F8B1B23C
:100B00001C4801F069F82868002812DD4FF4806164
:100B10001748FFF751FE01211548FFF74BFE022150
:100B2000144800F073FF0021124801F02DF82E68E0
:100B300012E04FF480610E48FFF73CFE01210C48A3
:100B4000FFF73AFE00210B4800F060FF0221094840
:100B500001F01AF82E687642B1B2064801F03AF870
:100B6000B1B2044801F03AF870BD0000E0E3FFFFC5
:100B7000000C0140002C014008B50121082000F0C4
:100B800065FB10208DF8030040F60340ADF800002F
:100B900003208DF8020069460148FFF777FD08BD84
:100BA000000C014008B50121082000F04FFB142083
:100BB0008DF803004FF44040ADF8000003208DF89D
:100BC000020069460448FFF761FD4FF440410248C6
:100BD000FFF7F2FD08BD0000000C014010B54FF416
:100BE00080410448FFF7DDFD04460A20FFF7A2FB21
:100BF000204610BD000C014010B5012000F06EF839
:100C0000012000F05DF8FFF7E9FF0446002000F046
:100C100057F8204610BD70B50025012000F05EF8A1
:100C200000240EE0012000F04BF8FFF7D7FF012869
:100C300002D1802020410543002000F041F8601CD3
:100C4000C4B2082CEEDB284670BD10B50446204621
:100C500000F044F8012000F033F8002000F030F8F4
:100C600010BD70B5054600240DE08021214101EA48
:100C7000050000F033F8012000F022F8002000F019
:100C80001FF8601CC4B2082CEFDB70BD10B501204A
:100C900000F024F8012000F013F8002000F01EF806
:100CA000002000F00DF810BD10B5002000F016F87F
:100CB000012000F005F8012000F010F810BD000040
:100CC00010B5044622464FF400410348FFF776FD75
:100CD0000A20FFF72FFB10BD000C014010B50446A1
:100CE00022464FF480410348FFF768FD0A20FFF7D2
:100CF00021FB10BD000C01407047000070B50021C1
:100D000000230F22C47804B3154C246804F4E06473
:100D1000C4F5E064210AC1F10403CA40447804FA2E
:100D200003F184781440214309010E4C0678A15543
:100D3000047804F01F050124AC4005786D11AD0066
:100D400005F1E025C5F8004109E0047804F01F052D
:100D50000124AC40044D0678761145F8264070BD5C
:100D60000CED00E000E400E080E100E00249014316
:100D7000024A1160704700000000FA050CED00E027
:100D800070B500240EE00021204600F0F0F80025A8
:100D900004E0002000F09BF9681CC5B2802DF8DB50
:100DA000601CC4B2082CEEDB70BD000008B5012148
:100DB000082000F04BFA14208DF8030003208DF872
:100DC00002004FF48070ADF8000069460A48FFF752
:100DD0005DFC4FF40070ADF8000069460648FFF76F
:100DE00055FC012211020448FFF7E8FC01225102E0
:100DF0000148FFF7E3FC08BD000C014070B5054653
:100E0000002415E08020204100EA05024FF4007123
:100E10000E48FFF7D3FC012211020C48FFF7CEFC6D
:100E200000224FF480710948FFF7C8FC601CC4B26F
:100E3000082CE7DB012211020448FFF7BFFC002267
:100E40004FF480710148FFF7B9FC70BD000C014000
:100E500010B5012251020A48FFF7B0FC012211022D
:100E60000748FFF7ABFC00224FF400710448FFF77E
:100E7000A5FC00224FF480710148FFF79FFC10BDD4
:100E8000000C014010B500224FF400710648FFF736
:100E900095FC012211020448FFF790FC0122510247
:100EA0000148FFF78BFC10BD000C014070B5002419
:100EB00006E0002500E06D1CB5F57A7FFBD3641CCD
:100EC000B4F57A7FF5D3FFF771FFAE2000F0EFF8AD
:100ED000D52000F0ECF8802000F0E9F8A82000F020
:100EE000E6F83F2000F0E3F8D32000F0E0F800201F
:100EF00000F0DDF8402000F0DAF8A12000F0D7F88B
:100F0000C82000F0D4F8DA2000F0D1F8122000F068
:100F1000CEF8812000F0CBF8CF2000F0C8F8D9201F
:100F200000F0C5F8F12000F0C2F8DB2000F0BFF8B7
:100F3000302000F0BCF8A42000F0B9F8A62000F0A2
:100F4000B6F88D2000F0B3F8142000F0B0F8AF2010
:100F500000F0ADF8FFF714FF70BD10B50246012098
:100F600000E050430B1EA1F10101FAD110BD70B594
:100F700005460C4645F0B00000F099F8102141EA12
:100F8000141000F094F804F00F0000F090F870BD19
:100F90002DE9F04105460E461746721ED206110E87
:100FA0006A1E5206100EFFF7E2FF002409E0A7F1C7
:100FB0002001134A02EB0111085D00F088F8601C63
:100FC000C4B2082CF3DB721ED206110E6A1E012376
:100FD00003EB4202D0B2FFF7CAFF00240BE0A7F1F7
:100FE0002001074A02EB011204F10801505C00F0F5
:100FF0006EF8601CC4B2082CF1DBBDE8F081000083
:10100000AC2B00082DE9F04780460E4617461D46DA
:10101000002415E0281B411E0A20FFF79EFFB7FBA6
:10102000F0F00A21B0FBF1F201FB120000F13009EF
:101030003019C1B24A464046FFF7AAFF601CC4B24D
:10104000AC42E7DBBDE8F0872DE9F04781468846F2
:1010500015461E46002D06DB2B2241464846FFF76B
:1010600097FF2F4605E02D2241464846FFF790FFA7
:101070006F42002417E0301B411E0A20FFF76DFF6E
:10108000B7FBF0F00A21B0FBF1F201FB120000F116
:10109000300A08EB0400401CC1B252464846FFF734
:1010A00077FF601CC4B2B442E5DBBDE8F08710B541
:1010B0000446FFF7CDFE7820FFF7A0FE0020FFF7E3
:1010C0009DFE2046FFF79AFEFFF7DCFE10BD10B52F
:1010D0000446FFF7BDFE7820FFF790FE4020FFF7A3
:1010E0008DFE2046FFF78AFEFFF7CCFE10BD0EB541
:1010F0000121084600F09AF84FF0804000F0D0FB44
:101100000020ADF80600ADF8020040F2E730ADF87F
:10111000040041F61F40ADF8000000208DF80800E3
:1011200069464FF0804000F08BFD0121880700F0F8
:10113000F9FA01221146900700F0A9FB0121880766
:1011400000F0F6FA0EBD000000B589B00121C8021A
:1011500000F07CF80121042000F078F818208DF8C8
:1011600023004FF47060ADF8200003208DF82200BA
:1011700008A92B48FFF78AFA2A4800F091FB0020C3
:10118000ADF81A00ADF8160040F2E730ADF81800DF
:1011900041F61F40ADF8140000208DF81C0005A991
:1011A000204800F04DFD01A800F008FD6020ADF8DA
:1011B00004000020ADF80C000120ADF8060000206E
:1011C000ADF80A0001A9174800F070FB01A9154805
:1011D00000F036FC01A9134800F0C6FB01A9114834
:1011E00000F094FC01210F4800F0AEFA01210D48F7
:1011F00000F08CFA01210B4800F0ADFB01210948F9
:1012000000F07BFC0121074800F00DFC012105489E
:1012100000F0C7FC0121034800F08AFA09B000BDC4
:1012200000080140002C01407047000029B1064A27
:10123000D2690243044BDA6104E0034AD269824373
:10124000014BDA61704700000010024029B1064AE4
:1012500092690243044B9A6104E0034A9269824313
:10126000014B9A617047000000100240704710B5B2
:1012700000F002F810BD00000CB5002001900090B5
:101280003348006840F480303149086000BF30487E
:10129000006800F4003000900198401C0190009814
:1012A00018B90198B0F5A06FF1D12948006800F491
:1012B000003010B10120009001E000200090009863
:1012C000012843D12348006840F0100021490860FC
:1012D0000846006820F0030008600846006840F0F7
:1012E000020008601A48406819494860084640688A
:1012F00048600846406840F480604860084640689E
:1013000020F47C1048600846406840F4E8104860CB
:101310000846006840F08070086000BF0C48006814
:1013200000F000700028F9D00948406820F0030060
:10133000074948600846406840F00200486000BF26
:101340000348406800F00C000828F9D10CBD0000EB
:1013500000100240002002407047000010B5134802
:10136000006840F0010011490860084640681049D3
:1013700008400E494860084600680E4908400B497D
:1013800008600846006820F480200860084640682D
:1013900020F4FE0048604FF41F008860FFF767FFED
:1013A0004FF000600449086010BD000000100240CA
:1013B0000000FFF8FFFFF6FE08ED00E0F0B50C4678
:1013C000154600220021068C4FF6FE773E4006842B
:1013D000028B018C4FF60C7632407E1C06EA031617
:1013E0002E433243104EB0420ED0104EB0420BD0BE
:1013F000B0F1804F08D00E4EB04205D00D4EB04235
:1014000002D00D4EB04206D14FF6FD76314044F089
:101410000106314305E04FF6F576314044F0010610
:10142000314302830184F0BD002C014000340140AF
:101430000004004000080040000C0040F0B50C46DD
:101440001546002200210026078C4FF6EF7C07EAA4
:101450000C070784028B018C4FF6FF7707EA04160E
:1014600040F6FF473A404FF6FF7707EA03373A4323
:101470004FF6FF7707EA05273A43114FB8420ED0DF
:10148000104FB8420BD0B0F1804F08D00E4FB84289
:1014900005D00E4FB84202D00D4FB84206D14FF6DC
:1014A000DF77394046F01007394305E04FF65F77A4
:1014B000394044F01007394302830184F0BD000035
:1014C000002C0140003401400004004000080040AE
:1014D000000C0040F0B50C46154600220021002605
:1014E000078C4FF6FF6C07EA0C070784828B018C90
:1014F0004FF6FF7707EA04264FF60C773A404FF68F
:10150000FF7707EA03172F433A43114FB8420ED033
:10151000104FB8420BD0B0F1804F08D00E4FB842F8
:1015200005D00E4FB84202D00D4FB84206D14FF64B
:10153000FF57394046F48077394305E04FF2FF57B3
:10154000394044F48077394382830184F0BD000040
:10155000002C01400034014000040040000800401D
:10156000000C0040F0B50C46154600220021002674
:10157000078C4EF6FF7C07EA0C070784828B018CF0
:101580004FF6FF7707EA043640F6FF473A404FF63A
:10159000FF7707EA05273A434FF6FF7707EA033755
:1015A0003A43114FB8420ED0104FB8420BD0B0F1B1
:1015B000804F08D00E4FB84205D00E4FB84202D02F
:1015C0000D4FB84206D14DF6FF77394046F48057AB
:1015D000394305E047F6FF57394044F48057394313
:1015E00082830184F0BD0000002C014000340140E2
:1015F0000004004000080040000C00401CB5012120
:10160000880700F0D4F801284AD126482649274BFC
:10161000274ACDE9001027492748FFF71FF9032083
:10162000FFF7D2F8254908800420FFF7CDF82449B8
:10163000088000F083FD044601F026F92149086086
:101640000846016820480068FEF78CFE1F490860C4
:101650000846006801F018F904461748036818485E
:10166000B0F900201548B0F90010204600F086FCC3
:10167000174908601548006801F006F904460E484D
:1016800003680F48B0F900200C48B0F9001020465C
:10169000FEF798FF0F4908600121880700F045F820
:1016A0001CBD00002800002026000020240000208F
:1016B000200000201C000020180000202A0000202C
:1016C0002C000020300000204000002034000020CA
:1016D000380000203C00002010B50121094800F02E
:1016E00066F801280CD10848D0E90020521C40F1CE
:1016F00000000549C1E900200121024800F015F869
:1017000010BD0000000400400800002021B1028844
:1017100042F08002028004E002884FF67F731A4094
:1017200002807047CA4302827047CA4302827047F0
:1017300021B1028842F00102028004E002884FF6E3
:10174000FE731A400280704731B1B0F8442042F471
:101750000042A0F8442005E0B0F84420C2F30E0295
:10176000A0F844207047F0B50C4615461E460021EF
:10177000002200230189028B038C4FF6F877394051
:1017800021434FF6FC473A4040F201173A434FF6E7
:10179000DD773B404FF6FF7707EA06172F433B43C1
:1017A000018102830384F0BD0146888C704730B507
:1017B0000246002000230024158A05EA01039589CA
:1017C00005EA010413B10CB1012000E0002030BD96
:1017D00070B505460C46244885420ED02348854204
:1017E0000BD0B5F1804F08D02148854205D0214863
:1017F000854202D02048854200D100E000BF208809
:1018000050B92389A28861882846FFF7D7FDE1886F
:10181000284600F0E8F925E0208804280AD1238929
:10182000A28861882846FFF709FEE188284600F073
:10183000E3F917E0208808280AD12389A288618863
:101840002846FFF747FEE188284600F0E2F909E064
:101850002389A28861882846FFF784FEE18828460C
:1018600000F0E0F970BD0000002C014000340140A0
:101870000004004000080040000C004000210180EE
:101880004180012181800021C180018170471AB10E
:1018900083890B43838102E083898B438381704773
:1018A00001894FF6F87211400181704770B500242C
:1018B00000220023058C4FF6FE7635400584028C0D
:1018C0008388048B4FF68F752C40B51E2C400D88F5
:1018D0002C43751E2A400D892A434D882A43144DF6
:1018E000A8420BD0134DA84208D0134DA84205D0F2
:1018F000124DA84202D0124DA84213D14FF6F775EF
:101900002A404D892A434FF6FB752A408D882A4389
:101910004FF6FF652B404FF6FF552B408D892B432B
:10192000CD892B4383800483CD888586028470BD56
:10193000002C0140003401400040014000440140BF
:10194000004801400A460021018C4FF6FD73194002
:101950001143018470470A460021018B4FF6F7734B
:10196000194011430183704770B500240022002301
:10197000058C4FF6EF7635400584028C8388048B06
:1019800048F6FF752C404FF6FF452C400D884FF66A
:10199000FF7606EA05252C434FF6DF752A400D89B0
:1019A00006EA05152A434D8806EA05152A43154D12
:1019B000A84202D0144DA8421DD14FF67F752A408F
:1019C0004D894FF6FF7606EA05152A434FF6BF7597
:1019D0002A408D8806EA05152A434FF6FF352B402D
:1019E0004FF2FF752B408D8906EA85052B43CD8983
:1019F00006EA85052B4383800483CD88058702840E
:101A000070BD0000002C0140003401400A46002156
:101A1000018C4FF6DF7319404FF6FF7303EA021390
:101A20001943018470470A460021018B4FF2FF736E
:101A300019404FF6FF7303EA0223194301837047ED
:101A400070B5002400220023058C4FF6FF66354058
:101A50000584028C8388848B4FF68F752C404FF65B
:101A6000FC752C400D882C434FF6FF552A400D89FC
:101A70004FF6FF7606EA05252A434D8806EA052536
:101A80002A43154DA84202D0144DA8421DD14FF251
:101A9000FF752A404D894FF6FF7606EA05252A4351
:101AA0004FF6FF352A408D8806EA05252A434EF673
:101AB000FF752B404DF6FF752B408D8906EA051505
:101AC0002B43CD8906EA05152B4383808483CD887B
:101AD0008587028470BD0000002C01400034014065
:101AE0000A460021018C4FF6FF5319404FF6FF7351
:101AF00003EA02231943018470470A460021818BBF
:101B00004FF6F773194011438183704770B5002277
:101B100000230024058C4EF6FF7635400584038CA7
:101B20008488828B48F6FF752A404FF6FF452A408D
:101B30000D884FF6FF7606EA05252A434DF6FF7518
:101B40002B400D8906EA05352B434D8806EA0535FD
:101B50002B430B4DA84202D00A4DA84208D14BF6A8
:101B6000FF752C408D894FF6FF7606EA85152C43CC
:101B700084808283CD88A0F84050038470BD00002B
:101B8000002C0140003401400A460021018C4DF632
:101B9000FF7319404FF6FF7303EA023319430184C0
:101BA00070470A460021818B4FF2FF7319404FF6B0
:101BB000FF7303EA022319438183704700210180E8
:101BC00041808180C180018141818181C1817047D3
:101BD000818670470187704781877047A0F8401061
:101BE000704781847047028B4FF6F3731A4002836B
:101BF000028B0A4302837047028B4FF2FF331A4075
:101C00000283028B4FF6FF7303EA01231A43028318
:101C10007047828B4FF6F3731A408283828B0A439C
:101C200082837047828B4FF2FF331A408283828B0C
:101C30004FF6FF7303EA01231A43828370470000C3
:101C4000002202881D4B98420ED01D4B98420BD0AB
:101C5000B0F1804F08D01B4B984205D01A4B9842E8
:101C600002D01A4B984204D14FF68F731A404B881A
:101C70001A43174B984207D0164B984204D04FF6A0
:101C8000FF431A40CB881A4302808B8883850B88D8
:101C900003850A4B98420BD0094B984208D00E4B53
:101CA000984205D00D4B984202D00D4B984201D17D
:101CB0000B7A03860123838270470000002C0140C9
:101CC000003401400004004000080040000C0040C7
:101CD000001000400014004000400140004401405A
:101CE0000048014070B540F22551684800F0EFF817
:101CF00000281BD040F22551644800F0D9F8634811
:101D000000F034F9C5B26248007880B92C2D0ED1AC
:101D100001205F4908705F4801780078401C5D4AE7
:101D200010705D4820F81150FFF72AF8ACE05848D1
:101D3000007801280ED1122D0CD1022054490870D0
:101D4000544801780078401C524A1070524820F8DC
:101D5000115099E04E480078022835D14D4801785D
:101D60000078401C4B4A10704B4820F81150104628
:101D700000780A2801DA5B2DD8D103204449087085
:101D800001204649087043480078401F424911F835
:101D90001000434908703F480078001F3E4911F881
:101DA0001000404908703B480078C01E3A4911F8BD
:101DB00010003D49087037480078801E364911F8F8
:101DC00010003A4908705FE03148007803284CD190
:101DD00030480078401E304931F810005B2834D17B
:101DE000002240F22551294800F09BF82B4800784A
:101DF000E8B1FEF7C5FF032329480278002101203E
:101E0000FFF700F903232748027811210220FFF78A
:101E1000F9F803232448027821211846FFF7F2F845
:101E200003232248027831210420FFF7EBF8002039
:101E30001A4908701749087015490870012240F2C4
:101E40002551124800F06DF81EE00020104908707E
:101E500010490870002405E000200F4921F8140003
:101E6000601CC4B20A2CF7DB0EE0002008490870A1
:101E700008490870002405E00020074921F81400F3
:101E8000601CC4B20A2CF7DB70BD000000380140B2
:101E9000050000200400002098000020060000201B
:101EA00000000020010000200200002003000020AC
:101EB00010B50022002340F66A14A14200D100BFF1
:101EC0000A1201249440A3B2DC43048010BD70B513
:101ED0000246002400230025002040F66A16B14285
:101EE00000D100BFC1F3421501F01F03012606FA1D
:101EF00003F3012D02D19689334006E0022D02D171
:101F0000168A334001E0968A33400C12012606FA05
:101F100004F41688344013B10CB1012000E0002015
:101F200070BDF0B50346002400260025002040F6D1
:101F30006A17B94200D100BF1846C1F3421401F03C
:101F40001F06012707FA06F5012C01D10C3004E029
:101F5000022C01D1103000E014301AB107682F4371
:101F6000076002E00768AF430760F0BD014688885C
:101F7000C0F30800704700BFFEE700002DE9FC5FDA
:101F800004460D4616461F46DFF8AC80A8192B49BB
:101F900008602B48006800F077FC4146019000F093
:101FA0008BFC82462548006800F06EFC414601909B
:101FB0004FF07E5000F056FD0090019900F07CFC3F
:101FC0008346514600F0C2FB814600F021FC1D49CA
:101FD0000860084600681A4908601A48006800F05E
:101FE00053FC8246214600F03DFD814600F010FC86
:101FF000144908600021384600F034FD0190124871
:102000000168019800F058FC82460E48006800F014
:102010003BFC01900D480168019800F04DFC83469F
:10202000514600F093FB814600F0F2FB084908603E
:1020300008460068BDE8FC9F3333333F6C00002046
:102040007400002070000020500000204C00002090
:1020500068000020FEF72AFFFEF7B2FCFEF716FA32
:10206000FEF7D2FBFFF770F8FEF786FDFEF7FAF9F0
:10207000FFF73DF81D490846FEF7F6FC34E01C4822
:10208000006800F0C5FB04460523224601210846EE
:10209000FEF7DAFF03231748B0F9002001210220E0
:1020A000FEF7D2FF03231448B0F9002006210220D6
:1020B000FEF7CAFF1148006800F04AFD054600F02F
:1020C00021F8C4B20D48006800F0BEFB0746234665
:1020D0003A4601210320FEF795FF0323084801211A
:1020E00002680420FEF78EFFC9E700009000002080
:1020F000180000202A0000202C00002030000020C2
:102100003C0000202DE9F04104460D460126002741
:102110000AE00A22002320462946FEF755F8044625
:102120000D46761C47F100070020D4F10901A841B3
:10213000EFD330463946BDE8F08100002DE9F0418B
:102140000025012220212448FEF738FB0F20FEF74E
:10215000F1F8002220212048FEF730FB00BF1021BB
:102160001D48FEF71EFB0028F9D000211B4A116014
:10217000516000BF10211848FEF713FB0128F9D069
:102180001648D0E90010164AC2E900106422002364
:10219000134903C9FEF718F8263871F1000114D26B
:1021A0000F484FF4AD734FF0000C06C8A1FB036855
:1021B00002FB038201FB0C21022263463046FEF73C
:1021C00003F804466420B4FBF0F50A20B5FBF0F0F8
:1021D00000B2BDE8F0810000000C014008000020C2
:1021E0001000002021F00042A2F16052B2F5801FE1
:1021F00001F0004328BFD2F17F6C0BD95FEA001CCD
:1022000043EAC20242EB507018BF704728BF20F06B
:1022100001007047B2F5801FBCBF184670474FEAF7
:10222000410C1CF5001F02D2084600F00CBC70B532
:1022300000F00CFA00000089FFF7F6BF4FF00040F5
:10224000A0F58000704700002DE9C04130B4DFF8F0
:10225000A0C23CEA111418BF3CEA131400F0EC8051
:1022600081EA03051CEA111444EAD57418BF1CEA7C
:10227000131500F0C780A4EB05044FF0004545EAB4
:10228000C12145EAC32341EA505143EA525304F1C4
:102290007F74994204F500344FEAC0204FEAC2220D
:1022A00008BF904200F09C804FEA13650FF2401681
:1022B000765D4FEA134506FB05F7C7F1807706FB0D
:1022C00007F74FEAD737A7FB03687642C8F580388F
:1022D000A7FB06CE38BFA8F1010807FB08E64FF0C0
:1022E000000EA6FB028CE6FB03CEDCF1000CCEF167
:1022F000004E38BFAEF1010EA6FB0C584FF00007A0
:102300004FF00005E6FB0E87A1FB08C6A0FB07CE39
:1023100016EB0E0645F10005E1FB076515F1E04EF1
:102320007EBFA4F580345FEA46066D4116F1800752
:1023300045F100054FEA17274FEA066647EA0567A9
:10234000A6F1DE46B6F1805F4FEA15251FD9384663
:1023500024F0010C05EBC471BCF1FE6F01EB0C1114
:1023600002D8F0BCBDE8008124425CBF01F5801EAC
:102370009EEAC47F02D4F0BCBDE80081244238D478
:10238000F0BCA1F1C041BDE8004100F0ADB94FEA99
:10239000D22242EA43524FEAD323A7FB02864FEAF6
:1023A000D02040EA415007FB03661EEA0E0F4FEAB9
:1023B000D12105FB026658BFA6EB0056B6EB0056CE
:1023C0004FEA520E4EEAC37E18EB0E0E56EB530E3A
:1023D000BDD518EB02085E417F1C55F10005B6E73C
:1023E0004FF480154FF000074FF000064FF0000843
:1023F000ADE7F0BC4FF0000001F1C04101F0004139
:10240000BDE8008111EA0C1F0CEA131500D00CE0A6
:1024100013EA0C1F00F025804FF00000F0BC81EAA9
:10242000030101F00041BDE80081F0BCBDE80041BE
:1024300081EA030100F058B9F0BCBDE8004170B575
:1024400000F004F9097EFC3E00F007B881EA0301C0
:102450004FF0000001F00041704781EA030100F0F5
:1024600043B9F0BCBDE800414FF00000214970477E
:10247000FFFDFBF9F7F5F4F2F0EEEDEBE9E8E6E449
:10248000E3E1E0DEDDDBDAD8D7D5D4D3D1D0CFCDD0
:10249000CCCBCAC8C7C6C5C4C2C1C0BFBEBDBCBB09
:1024A000BAB9B8B7B6B5B4B3B2B1B0AFAEADACAB04
:1024B000AAA9A8A8A7A6A5A4A3A3A2A1A09F9F9EDE
:1024C0009D9C9C9B9A999998979796959594939390
:1024D000929191908F8F8E8E8D8C8C8B8B8A898927
:1024E00088888787868585848483838282818180AA
:1024F0000000FF070000F87FDFF848C170B51CEA54
:10250000111E1EBF1CEA13159EEA0C0F95EA0C0F54
:1025100000F06F8081EA030423EA4C134EEAD47E74
:1025200021EA4C1141F4801143F48013AE44A1FB25
:10253000024CA0FB0365AEF17F7E361955EB0C050E
:10254000A1FB034C4CF10003A0FB021C16EB0C0694
:10255000654153F10003094218BF46F0010613F428
:10256000007F0BD14FEA03314FEA0530340341EAD3
:10257000155140EA16506FF003020AE04FEAC321FA
:102580004FEAC520F40241EA555140EA56506FF037
:10259000020202EB2E4201EB025585EACE710AD00F
:1025A0005FEA440C18BF24F0004450F1000041F1F0
:1025B000000120EAD47040F2FE7C624500D270BD7A
:1025C000A84214BF4FF080444FF04044002E08BF93
:1025D0000024BEF1806FA8BFA1F1C041BDE87040EA
:1025E00080F282804FF0000001F1C04101F0004113
:1025F00070479EEA0C0F0CEA131518BF95EA0C0FF2
:1026000006D04FF0000081EA030E0EF0004170BDCD
:1026100000F01CF88900013E00F007B800F009B88E
:102620004FEA430C5FEA5C5C08D081EA030100F0EA
:102630005BB84FEA410C5FEA5C5CF6D14FF00000FA
:10264000014970470000FF070000F87F0EF1020EFD
:102650002EF0030E5EF8046B364205D4012A43EBDC
:10266000030515F5001F12D8012841EB010C1CF5DC
:10267000001F0CD80ED14FEAD17C15F5001F0CEBD2
:102680004C0C0CF1020C08BF4CEBD37C04E04FF077
:10269000080C01E04FEAD37C0CEB4C0526FA05F65A
:1026A00006F00706B6F1040C06D20EEB860CBDE868
:1026B00070404CF0010C6047DFE80CF0090B02029F
:1026C0004FF000414FF00000A1F5002170BD194608
:1026D0001046012851EB010418BFD4F5001484BF43
:1026E000002001F0004170BD0808A0F500114FEA7C
:1026F0003101704743004FEAD30C4FEA3C0C434092
:102700001FBF40070CF1605113F0FE4F70471CF0E3
:10271000006F03D100200CF0004170470CF0004323
:1027200043EA507010B540EACC0000F046F900BF13
:10273000000000924FEA0001FFF7D6BF4FF00041C2
:102740004FF00000A1F500217047000090EA010F52
:1027500048BF81F0004100F18C81421A3CBF801AD1
:1027600089184FEAD0524FF07F4C1CEA410FA2EB80
:10277000D15318BF9CEA026F00F03B804FF0004C31
:102780004CEA00204CEA012121FA03FC10EB0C0C6E
:102790001ED202F1FF325FEA1C2040EBC25038BF6C
:1027A00070471CF07F0F4FEA400C18BFBCF17F4F01
:1027B00038BF7047C3F12003994008BF20F00100E3
:1027C000BCF17F4F38BF7047A0F1C04000F03BB96B
:1027D0004FEA3C00000A40EBC25028BF1CF0FF0F3C
:1027E0004FEA400CE6D018BFBCF17F4F38BF7047AE
:1027F000EAE79CEA026F05D010EA5C0F08BF00F020
:102800000040704710B500F0D8F800BF64FBBE3E32
:1028100041000B0ED3F19E0208D950F400034FEA99
:10282000032323FA02F048BF4042704710B500F07E
:10283000C4F800BF49922480002070476FF0004226
:1028400082EA200070470000C10DD1F19E0206DB34
:102850004FEA002343F0004323FA02F0704700429E
:1028600007D54FEA4001B1F1FE4F02D24FF0000010
:10287000704710B500F0A1F84992248000207047FD
:102880006FEA20007047000010F0004148BF40424E
:10289000B0FA80F310FA03F2C3F19D030BD051EAB2
:1028A000C35101EB1220530638BF704700F10100FD
:1028B00008BF20F0010070474FF47F0C1CEAD012D3
:1028C0001EBF1CEAD11392EA0C0F93EA0C0F00F022
:1028D000478090EA010F48BF42F480724FF0004CED
:1028E0004CEA00204CEA012102EB0302A0FB011399
:1028F000A2F50002002918BF43F001035B0028BFC6
:102900004FEA330342EB22425FEA132C4CEBC250F6
:102910002EBFBCEB436FB2F57C0F70474FEA036CE0
:10292000BCF1004F08BF20F00100B2F57C0F38BFAA
:1029300070470BD582F0FF0212F5803FC8BF704789
:1029400000F1C040D8BF00F00040704700F5000C17
:102950005FEA4C0C48BF7047B0F1C04000F073B85C
:1029600090EA010F0CEAD11348BF42F4807262452D
:1029700038BF634504D280EA010000F00040704790
:1029800010B500F01AF800BF8900013E00F007B84A
:1029900000F009B85FEA410C5FEA1C6C08D080EADD
:1029A000010000F050B85FEA400C5FEA1C6CF6D101
:1029B0004FF00040A0F5800070470EF1020E2EF09F
:1029C000030E5EF8044B244204D44FEA4102B2F1F4
:1029D0007F4F11D84FEA4003B3F17F4F0CD80ED18F
:1029E0004FEAD07CB2F17F4F0CEB4C0C0CF1020C97
:1029F00008BF4CEBD17C04E04FF0080C01E04FEA3B
:102A0000D17C0CEB4C0324FA03F404F00704B4F17A
:102A1000040C06D20EEB840CBDE810404CF0010C07
:102A20006047DFE80CF0070802024FF00040A0F515
:102A3000800010BD0846420018BFD2F1807288BFE6
:102A400000F0004010BDFF2141EAD050C0057047A2
:102A500080F0004090EA010F7FF57FAE81F00041E9
:102A600000F007B890EA010F48BF81F000413FF540
:102A700074AE421A04D882F00042A0EB0200114466
:102A80004FEAD0524FF07F4C1CEA410FA2EBD153DA
:102A900018BF9CEA026F4AD04FF0004C4CEA00206D
:102AA0004CEA012121FA03FCB0EB0C0C0FD412F01C
:102AB000FE0F36D05FEA4C001DD5001240EBC2502D
:102AC00038BF70471CF03F0F18BF70470BE0A2F1F2
:102AD00001025FEA1C2040EBC25038BF70471CF077
:102AE0007F0F18BF7047C3F12003994014BF401EE9
:102AF00020F00100704780084FEA122308BF70479A
:102B0000B0FA80FCA2EB0C02CCF1280C60FA0CF0BD
:102B100093EA122F04BF00EBC25070474FEAC37014
:102B20007047130A5FEADC1008BF7047F6E79CEABB
:102B3000026F04D010EA5C0F08BF0020704710B588
:102B4000FFF73BFF40DFF63E81F00040704700009A
:102B5000C2154FEA002318BF43F000430ED4D2F150
:102B6000BE0215D323FA02F1B2F1200C2EBF23FAD4
:102B70000CF0C2F1200C03FA0CF070474FEA400C45
:102B8000BCF1FE4F04D24FF000004FF0000170473F
:102B900010B5FFF712FF00BF9224498000204FF0CC
:102BA000000170476FEAE0700146704700000000C6
:102BB000000000000000000000000000000000F81D
:102BC00000000000000000333000000000100C0680
:102BD000100C0600000000000000000040C078401B
:102BE000C0784000043F04043F040400007088FCE7
:102BF00008300000001820FF211E0000F008F0003F
:102C0000E018000000211C031E211E0000F00888AF
:102C1000700000001E2123241927211010160E0019
:102C2000000000000000000000000000000000E0C4
:102C300018040200000000071820400000020418D9
:102C4000E00000000040201807000000404080F035
:102C5000804040000202010F01020200000000F06B
:102C6000000000000101011F01010100000000003F
:102C70000000000080B070000000000000000000B4
:102C8000000000000001010101010101000000003D
:102C900000000000003030000000000000000000D4
:102CA00080601804006018060100000000E01008B1
:102CB0000810E000000F102020100F00001010F886
:102CC000000000000020203F2020000000700808C5
:102CD0000888700000302824222130000030088845
:102CE000884830000018202020110E000000C0206D
:102CF00010F8000000070424243F240000F808888E
:102D0000880808000019212020110E0000E010881A
:102D100088180000000F112020110E00003808084C
:102D2000C83808000000003F00000000007088085C
:102D300008887000001C222121221C0000E01008DD
:102D40000810E0000000312222110F00000000C036
:102D5000C0000000000000303000000000000080D3
:102D600000000000000080600000000000008040C3
:102D700020100800000102040810200040404040DC
:102D8000404040000404040404040400000810202F
:102D90004080000000201008040201000070480874
:102DA0000808F0000000003036010000C030C828DC
:102DB000E810E0000718272423140B000000C03897
:102DC000E0000000203C23020227382008F8888811
:102DD00088700000203F202020110E00C03008081D
:102DE00008083800071820202010080008F80808F4
:102DF0000810E000203F202020100F0008F88888ED
:102E0000E8081000203F20202320180008F88888B8
:102E1000E8081000203F200003000000C030080830
:102E20000838000007182020221E020008F80800B9
:102E30000008F808203F210101213F20000808F880
:102E4000080800000020203F2020000000000808A3
:102E5000F8080800C08080807F00000008F888C063
:102E600028180800203F20012638200008F8080014
:102E700000000000203F20202020300008F8F8004B
:102E8000F8F80800203F003F003F200008F830C05D
:102E90000008F808203F200007183F00E01008084D
:102EA0000810E0000F10202020100F0008F808087C
:102EB0000808F000203F210101010000E01008088F
:102EC0000810E0000F18242438504F0008F88888B4
:102ED00088887000203F2000030C30200070880894
:102EE000080838000038202121221C00180808F8A2
:102EF000080818000000203F2000000008F8080023
:102F00000008F808001F202020201F0008788800F3
:102F100000C83808000007380E010000F80800F863
:102F20000008F800033C0700073C0300081868800D
:102F30008068180820302C03032C30200838C80083
:102F4000C83808000000203F2000000010080808D2
:102F5000C83808002038262120201800000000FE74
:102F6000020202000000007F40404000000C30C020
:102F700000000000000000010638C000000202024C
:102F8000FE000000004040407F00000000000402FE
:102F90000202040000000000000000000000000029
:102FA0000000000080808080808080800002020419
:102FB0000000000000000000000000000000808011
:102FC000808000000019242222223F2008F800807F
:102FD00080000000003F112020110E000000008042
:102FE00080800000000E11202020110000000080D1
:102FF0008088F800000E112020103F200000808003
:1030000080800000001F222222221300008080F016
:10301000888888180020203F202000000000808041
:1030200080808000006B94949493600008F8008086
:1030300080800000203F210000203F2000809898E1
:10304000000000000020203F202000000000008041
:103050009898000000C08080807F000008F8000081
:1030600080808000203F24022D302000000808F8D6
:10307000000000000020203F202000008080808091
:1030800080808000203F20003F20003F8080008023
:1030900080800000203F210000203F200000808031
:1030A00080800000001F202020201F0080800080E2
:1030B0008000000080FFA12020110E000000008091
:1030C00080808000000E112020A0FF808080800082
:1030D0008080800020203F212000010000008080AF
:1030E000808080000033242424241900008080E0A4
:1030F000808000000000001F202000008080000071
:1031000000808000001F202020103F208080800051
:103110000080808000010E30080601008080008061
:10312000008080800F300C030C300F000080800086
:10313000808080000020312E0E31200080808000B1
:103140000080808080818E70180601000080808061
:10315000808080000021302C2221300000000000FF
:10316000807C020200000000003F404000000000A0
:10317000FF00000000000000FF0000000002027CD1
:10318000800000000040403F0000000000060101F8
:10319000020204040000000000000000BC3100082E
:1031A00000000020980000002801000854320008A8
:1031B000980000207806000044010008000000008C
:1031C00000000000000000000000000000000000FF
:1031D00000000000000000000000000000000000EF
:1031E00000000000000000000000000000000000DF
:1031F000000000000000000000000000000070411E
:103200000000C842000000000000000000000000B4
:1032100000000000000000000000000000000000AE
:10322000000000000000000000000000000000009E
:10323000000000000000000000000000000000008E
:10324000000000000000000000000000E703000094
:0432500019FCFFFF67
:04000005080000ED02
:00000001FF
