:020000040800F2
:1000000030070020890100085D0C00083507000852
:1000100041090008430200085522000800000000C2
:10002000000000000000000000000000C5120008F1
:100030004702000800000000AD1100081514000878
:10004000A3010008A3010008A3010008A301000800
:10005000A3010008A3010008A3010008A3010008F0
:10006000A3010008A3010008A3010008A3010008E0
:10007000A3010008A3010008A3010008A3010008D0
:10008000A3010008A3010008A3010008A3010008C0
:10009000A3010008A3010008A3010008A3010008B0
:1000A000A3010008A3010008A3010008A3010008A0
:1000B000B916000819180008A3010008A3010008D8
:1000C000A3010008A3010008A3010008A301000880
:1000D000A3010008A3010008251E0008A3010008D1
:1000E000A3010008A3010008A301000800F002F822
:1000F00000F03AF80AA090E8000C82448344AAF188
:100100000107DA4501D100F02FF8AFF2090EBAE885
:100110000F0013F0010F18BFFB1A43F0010318473B
:100120003035000050350000103A24BF78C878C13F
:10013000FAD8520724BF30C830C144BF04680C60ED
:10014000704700000023002400250026103A28BF35
:1001500078C1FBD8520728BF30C148BF0B60704739
:100160001FB51FBD10B510BD00F031F81146FFF7E7
:10017000F7FF02F0E3F800F04FF803B4FFF7F2FFE7
:1001800003BC00F057F800000948804709480047C1
:10019000FEE7FEE7FEE7FEE7FEE7FEE7FEE7FEE737
:1001A000FEE7FEE704480549054A064B7047000094
:1001B00019140008ED00000830010020300700206D
:1001C00030030020300300207047704770477546A9
:1001D00000F02CF8AE4605006946534620F00700B3
:1001E000854618B020B5FFF7DDFFBDE820404FF091
:1001F00000064FF000074FF000084FF0000B21F011
:100200000701AC46ACE8C009ACE8C009ACE8C009DD
:10021000ACE8C0098D46704710B50446AFF30080C6
:100220002046BDE81040FFF7A8BF00000048704717
:10023000CC00002001491820ABBEFEE726000200DA
:10024000704700BFFEE7704700B5034603E04FF478
:100250007A7000F005F8181EA3F10103F7D100BD74
:1002600000EBC001C9004FF0E02251610021916113
:100270000521116100BF4FF0E021096901F48031CF
:100280000029F8D004214FF0E022116170470000EE
:100290002DE9F05F04460D46344E2946204602F013
:1002A0005FFE074602F0F4FC3149086031480068FF
:1002B00002F02AFD8246314602F086FD80462C4837
:1002C000006802F021FD824631464FF07E5002F078
:1002D00051FE8346514602F077FD8146414602F0C9
:1002E000A7FB074602F0D4FC2349086008460068D3
:1002F00020490860214800681F49096808441F49CF
:1003000008600846006842F21071884201DD084624
:1003100008E01A4800681A49884201DA084601E0F4
:1003200016480068154908600846006802F0ECFCB1
:10033000824614480168504602F046FD80460E4849
:10034000006802F0E1FC82460F480168504602F066
:100350003BFD8146414602F06BFB074602F098FCEC
:100360000A49086008460068BDE8F09F3333333F10
:1003700078000020800000207C0000208400002005
:10038000F0D8FFFF68000020640000207400002007
:1003900008B54FF4A06000F09BFC1C208DF8000015
:1003A00001208DF803008DF8010000208DF8020077
:1003B000684600F055FC08BD00B587B00121042057
:1003C00000F0F6FE0121082000F002FF48208DF821
:1003D0001B00C020ADF8180003208DF81A0006A9F4
:1003E0003F4800F0E9F80020ADF81200ADF80E002B
:1003F0004FF6FF70ADF810000020ADF80C008DF83E
:10040000140003A9374801F0BBFC684601F0D6FA96
:100410000020ADF800000F20ADF808006946314813
:1004200001F076FA0420ADF800000F20ADF80800C6
:1004300069462C4801F06CFA00231A46032129482A
:1004400001F031FA0121274801F012FA01210220BE
:1004500000F0AEFE0121042000F0BAFE48208DF825
:100460001B00C020ADF8180003208DF81A0006A963
:100470001D4800F0A1F80020ADF81200ADF80E0004
:100480004FF6FF70ADF810000020ADF80C008DF8AD
:10049000140003A9154801F073FC684601F08EFAB8
:1004A0000020ADF800000F20ADF8080069460F48A5
:1004B00001F02EFA0420ADF800000F20ADF808007E
:1004C00069460A4801F024FA00231A460321074826
:1004D00001F0E9F90121054801F0CAF907B000BDB2
:1004E000000C0140000800400008014000040040EA
:1004F0002DE9FE4F07460C4615461E46DFF89C8048
:100500006019274908602748006802F0FDFB414652
:10051000029002F059FC82462148006802F0F4FB88
:10052000414602904FF07E5002F024FD0190029966
:1005300002F04AFC8346514602F07AFA814602F004
:10054000A7FB194908600846006816490860174863
:100550000168384602F038FC3146029014480068C1
:1005600002F032FC01901048006802F0CDFB0090D0
:100570000E480168009802F027FC8346019902F0BA
:1005800057FA8246029902F0F5FC814602F080FBA0
:100590000849086008460068BDE8FE8F3333333FE2
:1005A0009C000020A4000020A00000206C0000207F
:1005B00070000020980000202DE9F041024600253F
:1005C0000026002000230024002791F803C00CF02F
:1005D0000F0591F803C00CF0100CBCF1000F03D014
:1005E00091F802C04CEA050591F800C0BCF1000F7B
:1005F00031D0146800202BE04FF0010C0CFA00F30E
:10060000B1F800C00CEA03069E4220D183004FF0EF
:100610000F0C0CFA03F7BC4305FA03FC4CEA040484
:1006200091F803C0BCF1280F06D14FF0010C0CFA71
:1006300000FCC2F814C00AE091F803C0BCF1480FF6
:1006400005D14FF0010C0CFA00FCC2F810C0401CA0
:100650000828D1D31460B1F800C0BCF1FF0F34DD1D
:10066000546800202EE000F1080C4FF0010808FA51
:100670000CF3B1F800C00CEA03069E4221D18300BE
:100680004FF00F0C0CFA03F7BC4305FA03FC4CEADD
:10069000040491F803C0BCF1280F05D100F1080C47
:1006A00008FA0CF8C2F8148091F803C0BCF1480FA6
:1006B00007D100F1080C4FF0010808FA0CF8C2F855
:1006C0001080401C0828CED35460BDE8F08102465B
:1006D000002093680B400BB1012000E00020704720
:1006E00041617047016170470AB1016100E04161F9
:1006F0007047000070B50546032D0AD0042D11D1B6
:100700000A4801F0F1F804B20021084801F009FBA1
:1007100008E0074801F0E8F804B20021044801F0BD
:1007200000FB00BF00BF204670BD00000008004075
:100730000004004000BFFEE72DE9F04F89B00646F7
:10074000894692469B463B2000F0C4F804463C2074
:1007500000F0C0F8054645EA042000B20890089869
:1007600002F0D2FA4FF08041009002F02DFB019090
:1007700002F032F90746464A464B02F02FF80022B3
:10078000454BCDE9020101F0D1FECDE9040101F0B4
:100790009BFE3060306880F0004030603D2000F00B
:1007A00099F804463E2000F095F8054645EA0420F5
:1007B00000B20790079802F0A7FA4FF0804100902E
:1007C00002F002FB019002F007F9314A314BCDE90A
:1007D000020102F003F8074600222F4B01F0A6FEAB
:1007E000CDE9040101F070FEC9F800003F2000F0DF
:1007F00071F80446402000F06DF8054645EA0420F3
:1008000000B20690069802F07FFA4FF08041009007
:1008100002F0DAFA019002F0DFF807461C4A1D4B9D
:1008200001F0DCFF00221C4BCDE9020101F07EFE4D
:10083000CDE9040101F048FECAF80000432000F0B1
:1008400049F80446442000F045F8054645EA0420EE
:1008500000B2ABF80000452000F03CF8044646200A
:1008600000F038F8054645EA042001B212980180EC
:10087000472000F02FF80446482000F02BF80546EA
:1008800045EA042001B21398018009B0BDE8F08F59
:100890009A9999999999234000FBDF4010B500F08F
:1008A00033F901216B2000F034F800216C2000F0B6
:1008B00030F80921192000F02CF806211A2000F048
:1008C00028F818211B2000F024F800211C2000F03B
:1008D00020F810BD70B5044600F08AF9D02000F071
:1008E00072F900F03BF9204600F06DF900F036F99E
:1008F00000F07EF9D12000F066F900F02FF900F049
:100900003CF90546012000F052F900F07FF9284635
:1009100070BD70B505460C4600F06AF9D02000F0B5
:1009200052F900F01BF9284600F04DF900F016F9D5
:10093000204600F048F900F011F900F067F970BDA9
:1009400000BFFEE710B519480078012804D002283E
:1009500003D0032827D10EE025E00F211448B0F979
:10096000000001F065FD0120104908700121800799
:1009700000F07EFF17E00F490F48006802F0F0F921
:1009800010D80E48007801280CD10DA205210420B2
:1009900000F03FFB0B480078401C0A4908700A48E9
:1009A00000F00CFD00BF00BF10BD000030000020B3
:1009B000360000200000C04050000020320000201F
:1009C00059455300A80000206000002070B504467F
:1009D0000D4600262068B0F5E15F02DD4FF4E150DE
:1009E0002060206810F5E15F01DA3948206028684E
:1009F000B0F5E15F02DD4FF4E1502860286810F5A2
:100A0000E15F01DA324828602068002812DD4FF4E7
:100A100000613048FFF766FE02212E48FFF762FEB4
:100A200002212D4801F02EF802212B4801F0F8F8A0
:100A3000266812E04FF400612648FFF751FE0221BC
:100A40002448FFF74DFE0021234801F01BF8002148
:100A5000214801F0E5F826687642B1B21E4801F05F
:100A600057F9B1B21C4801F057F92868002812DD87
:100A70004FF480611748FFF735FE01211548FFF755
:100A80002FFE0221144801F061F80021124801F004
:100A90001BF92E6812E04FF480610E48FFF720FE2C
:100AA00001210C48FFF71EFE00210B4801F04EF813
:100AB0000221094801F008F92E687642B1B20648D1
:100AC00001F028F9B1B2044801F028F970BD000026
:100AD000E0E3FFFF000C0140002C014008B50121BC
:100AE000082000F075FB10208DF8030040F603404D
:100AF000ADF8000003208DF8020069460148FFF7B9
:100B00005BFD08BD000C014008B50121082000F084
:100B10005FFB14208DF803004FF44040ADF8000057
:100B200003208DF8020069460448FFF745FD4FF4A5
:100B300040410248FFF7D6FD08BD0000000C01400F
:100B400010B54FF480410448FFF7C1FD04460A2068
:100B5000FFF786FB204610BD000C014010B50120B8
:100B600000F06EF8012000F05DF8FFF7E9FF0446A1
:100B7000002000F057F8204610BD70B50025012078
:100B800000F05EF800240EE0012000F04BF8FFF7C3
:100B9000D7FF012802D1802020410543002000F02A
:100BA00041F8601CC4B2082CEEDB284670BD10B5BD
:100BB0000446204600F044F8012000F033F80020FD
:100BC00000F030F810BD70B5054600240DE080211E
:100BD000214101EA050000F033F8012000F022F87D
:100BE000002000F01FF8601CC4B2082CEFDB70BDC1
:100BF00010B5012000F024F8012000F013F80020C7
:100C000000F01EF8002000F00DF810BD10B5002017
:100C100000F016F8012000F005F8012000F010F8AF
:100C200010BD000010B5044622464FF400410348B1
:100C3000FFF75AFD0A20FFF713FB10BD000C01401F
:100C400010B5044622464FF480410348FFF74CFD9F
:100C50000A20FFF705FB10BD000C014070470000A3
:100C600070B5002100230F22C47804B3154C24680A
:100C700004F4E064C4F5E064210AC1F10403CA404D
:100C8000447804FA03F184781440214309010E4C9E
:100C90000678A155047804F01F050124AC400578BE
:100CA0006D11AD0005F1E025C5F8004109E00478BB
:100CB00004F01F050124AC40044D0678761145F878
:100CC000264070BD0CED00E000E400E080E100E0B3
:100CD00002490143024A1160704700000000FA0512
:100CE0000CED00E070B500240EE00021204600F07D
:100CF000F0F8002504E0002000F0AFF9681CC5B250
:100D0000802DF8DB601CC4B2082CEEDB70BD000047
:100D100008B50121082000F05BFA14208DF80300CB
:100D200003208DF802004FF48070ADF80000694692
:100D30000A48FFF741FC4FF40070ADF80000694627
:100D40000648FFF739FC012211020448FFF7CCFCEA
:100D5000012251020148FFF7C7FC08BD000C014009
:100D600070B50546002415E08020204100EA050208
:100D70004FF400710E48FFF7B7FC012211020C4836
:100D8000FFF7B2FC00224FF480710948FFF7ACFC7A
:100D9000601CC4B2082CE7DB012211020448FFF7F3
:100DA000A3FC00224FF480710148FFF79DFC70BD49
:100DB000000C014010B5012251020A48FFF794FCD3
:100DC000012211020748FFF78FFC00224FF4007147
:100DD0000448FFF789FC00224FF480710148FFF7B7
:100DE00083FC10BD000C014010B500224FF40071CF
:100DF0000648FFF779FC012211020448FFF774FC52
:100E0000012251020148FFF76FFC10BD000C0140A8
:100E100070B5002406E0002500E06D1CB5F57A7F72
:100E2000FBD3641CB4F57A7FF5D3FFF771FFAE20D6
:100E300000F003F9D52000F000F9802000F0FDF863
:100E4000A82000F0FAF83F2000F0F7F8D32000F0D7
:100E5000F4F8002000F0F1F8402000F0EEF8A120B6
:100E600000F0EBF8C82000F0E8F8DA2000F0E5F830
:100E7000122000F0E2F8812000F0DFF8CF2000F02F
:100E8000DCF8D92000F0D9F8F12000F0D6F8DB200A
:100E900000F0D3F8302000F0D0F8A42000F0CDF816
:100EA000A62000F0CAF88D2000F0C7F8142000F04A
:100EB000C4F8AF2000F0C1F8FFF714FF70BD10B503
:100EC0000246012000E050430B1EA1F10101FAD1BE
:100ED00010BD70B505460C4645F0B00000F0ADF809
:100EE000102141EA141000F0A8F804F00F0000F0FF
:100EF000A4F870BD2DE9F04105460E461746721E56
:100F0000D206110E6A1E5206100EFFF7E2FF0024F1
:100F100009E0A7F12001134A02EB0111085D00F07E
:100F20009CF8601CC4B2082CF3DB721ED206110EB2
:100F30006A1E012303EB4202D0B2FFF7CAFF00246E
:100F40000BE0A7F12001074A02EB011204F10801AE
:100F5000505C00F082F8601CC4B2082CF1DBBDE8E4
:100F6000F08100005E3000082DE9F04780460E4613
:100F700017461D46002415E0281B411E0A20FFF7D6
:100F80009EFFB7FBF0F00A21B0FBF1F201FB12006B
:100F900000F130093019C1B24A464046FFF7AAFFB6
:100FA000601CC4B2AC42E7DBBDE8F0872DE9F04736
:100FB0008146884615461E46002D06DB2B224146FB
:100FC0004846FFF797FF2F4605E02D224146484649
:100FD000FFF790FF6F42002417E0301B411E0A20EC
:100FE000FFF76DFFB7FBF0F00A21B0FBF1F201FB58
:100FF000120000F1300A08EB0400401CC1B2524656
:101000004846FFF777FF601CC4B2B442E5DBBDE899
:10101000F0872DE9F04107460E461546002407E00B
:101020002A5D3019C1B23846FFF764FF601CC4B2B4
:10103000285D0028F4D1BDE8F08110B50446FFF723
:10104000B9FE7820FFF78CFE0020FFF789FE2046CE
:10105000FFF786FEFFF7C8FE10BD10B50446FFF788
:10106000A9FE7820FFF77CFE4020FFF779FE20469E
:10107000FFF776FEFFF7B8FE10BD0EB5012108465A
:1010800000F096F84FF0804000F0AAFC0020ADF888
:101090000600ADF802006320ADF8040041F61F40E1
:1010A000ADF8000000208DF8080069464FF0804040
:1010B00000F066FE0121880700F0D4FB01221146F2
:1010C000900700F084FC0121880700F0D1FB0EBDE1
:1010D00000B589B00121C80200F07AF8012104208E
:1010E00000F076F818208DF823004FF47060ADF80A
:1010F000200003208DF8220008A92A48FFF75CFA97
:10110000294800F06DFC0020ADF81A00ADF816007B
:1011100041F61F40ADF818000020ADF814008DF81E
:101120001C0005A9204800F02BFE01A800F0E6FDF8
:101130006020ADF804000020ADF80C000120ADF8EF
:1011400006000020ADF80A0001A9174800F04EFC87
:1011500001A9154800F014FD01A9134800F0A4FCF2
:1011600001A9114800F072FD01210F4800F08CFB2D
:1011700001210D4800F06AFB01210B4800F08BFCB7
:101180000121094800F059FD0121074800F0EBFC5E
:101190000121054800F0A5FD0121034800F068FB8E
:1011A00009B000BD00080140002C0140704700005C
:1011B00029B1064AD2690243044BDA6104E0034ACA
:1011C000D2698243014BDA6170470000001002408F
:1011D00029B1064A92690243044B9A6104E0034A2A
:1011E00092698243014B9A617047000000100240EF
:1011F00030B500210022002400232D4D6D6805F03C
:101200000C0121B1042905D0082923D105E0294D7D
:10121000056022E0274D05601FE0254D6D6805F44F
:101220007012234D6D6805F48034022505EB92425F
:101230001CB9214D554305600BE01D4D6D6805F44B
:1012400000351DB11C4D5543056002E0194D554355
:10125000056002E0174D056000BF00BF144D6D68CA
:1012600005F0F0010909154D6B5C0568DD4045602E
:101270000F4D6D6805F4E061090A104D6B5C45681F
:10128000DD4085600A4D6D6805F46051C90A0B4D5B
:101290006B5C4568DD40C560054D6D6805F44041F7
:1012A000890B074D6B5CC568B5FBF3F5056130BD77
:1012B0000010024000127A0000093D0000000020EA
:1012C00010000020704700000148007870470000BF
:1012D0001600002010B500F001F810BD0CB500207C
:1012E000019000903348006840F480303149086034
:1012F00000BF3048006800F4003000900198401CA6
:101300000190009818B90198B0F5A06FF1D1294863
:10131000006800F4003010B10120009001E00020CE
:1013200000900098012843D12348006840F0100045
:10133000214908600846006820F00300086008465C
:10134000006840F0020008601A4840681949486087
:101350000846406848600846406840F4806048603D
:101360000846406820F47C1048600846406840F415
:10137000E81048600846006840F08070086000BFD0
:101380000C48006800F000700028F9D00948406857
:1013900020F00300074948600846406840F002001A
:1013A000486000BF0348406800F00C000828F9D1ED
:1013B0000CBD0000001002400020024010490978D6
:1013C00007291AD2DFE801F004070A0D10131600EE
:1013D0000C49016011E00C4901600EE0094901600F
:1013E0000BE00A49016008E00649016005E0084990
:1013F000016002E00449016000BF00BF70470000C7
:10140000A80000200000C04000002A4300007041F6
:1014100000005C427047000010B51348006840F0BF
:1014200001001149086008464068104908400E490B
:101430004860084600680E4908400B4908600846A5
:10144000006820F4802008600846406820F4FE0010
:1014500048604FF41F008860FFF73CFF4FF00060CA
:101460000449086010BD0000001002400000FFF8B1
:10147000FFFFF6FE08ED00E0F0B50C461546002231
:101480000021068C4FF6FE773E400684028B018CCD
:101490004FF60C7632407E1C06EA03162E4332438A
:1014A000104EB0420ED0104EB0420BD0B0F1804F73
:1014B00008D00E4EB04205D00D4EB04202D00D4EB7
:1014C000B04206D14FF6FD76314044F0010631437B
:1014D00005E04FF6F576314044F0010631430283D2
:1014E0000184F0BD002C01400034014000040040A4
:1014F00000080040000C0040F0B50C4615460022E4
:1015000000210026078C4FF6EF7C07EA0C070784C2
:10151000028B018C4FF6FF7707EA041640F6FF476F
:101520003A404FF6FF7707EA03373A434FF6FF7723
:1015300007EA05273A43114FB8420ED0104FB84280
:101540000BD0B0F1804F08D00E4FB84205D00E4FEF
:10155000B84202D00D4FB84206D14FF6DF7739407E
:1015600046F01007394305E04FF65F77394044F005
:101570001007394302830184F0BD0000002C0140B4
:10158000003401400004004000080040000C00400E
:10159000F0B50C461546002200210026078C4FF6B8
:1015A000FF6C07EA0C070784828B018C4FF6FF77EC
:1015B00007EA04264FF60C773A404FF6FF7707EA22
:1015C00003172F433A43114FB8420ED0104FB84281
:1015D0000BD0B0F1804F08D00E4FB84205D00E4F5F
:1015E000B84202D00D4FB84206D14FF6FF573940EE
:1015F00046F48077394305E04FF2FF57394044F411
:101600008077394382830184F0BD0000002C0140C3
:10161000003401400004004000080040000C00407D
:10162000F0B50C461546002200210026078C4EF628
:10163000FF7C07EA0C070784828B018C4FF6FF774B
:1016400007EA043640F6FF473A404FF6FF7707EACD
:1016500005273A434FF6FF7707EA03373A43114F1E
:10166000B8420ED0104FB8420BD0B0F1804F08D026
:101670000E4FB84205D00E4FB84202D00D4FB842BF
:1016800006D14DF6FF77394046F48057394305E0DF
:1016900047F6FF57394044F4805739438283018429
:1016A000F0BD0000002C0140003401400004004067
:1016B00000080040000C00401CB50121880700F024
:1016C00016F9012875D10121800700F0CEF84148B4
:1016D0004149424B424ACDE9001042494248FFF796
:1016E0002BF80420FFF706F8404908800320FFF795
:1016F00001F83F490880FFF7E7FD044601F01CFBB5
:101700003C49086000F0DAFE3B490870394801683E
:101710003A480068FEF7BCFD394908600846006891
:1017200001F0F2FA0446304803683148B0F900206D
:101730002E48B0F90010204600F08EFD31490860B7
:101740002F48006801F0E0FA04462748036828485B
:10175000B0F900202548B0F900102046FEF7C8FE79
:1017600029490860084600684042086000F0E0FD32
:1017700018B101202549087002E0002023490870B3
:101780001D4800788C2803DB1B480078B4281CDD3A
:1017900019480078962804DA4FF0FF301C49088079
:1017A0000BE015480078AA2804DD012018490880BC
:1017B00003E00EE000201649088000214FF0804031
:1017C00000F056F80220134908700F490846FFF749
:1017D000FDF81CBD48000020460000204400002009
:1017E000400000203C000020380000204A0000207B
:1017F0004C0000205000002031000020600000203C
:1018000054000020580000205C000020320000201E
:10181000360000203000002010B50121094800F0FA
:1018200066F801280CD10848D0E90020521C40F18C
:1018300000000549C1E900200121024800F015F827
:1018400010BD0000000400402000002021B10288EB
:1018500042F08002028004E002884FF67F731A4053
:1018600002807047CA4302827047CA4302827047AF
:1018700021B1028842F00102028004E002884FF6A2
:10188000FE731A400280704731B1B0F8442042F430
:101890000042A0F8442005E0B0F84420C2F30E0254
:1018A000A0F844207047F0B50C4615461E460021AE
:1018B000002200230189028B038C4FF6F877394010
:1018C00021434FF6FC473A4040F201173A434FF6A6
:1018D000DD773B404FF6FF7707EA06172F433B4380
:1018E000018102830384F0BD0146888C704730B5C6
:1018F0000246002000230024158A05EA0103958989
:1019000005EA010413B10CB1012000E0002030BD54
:1019100070B505460C46244885420ED023488542C2
:101920000BD0B5F1804F08D02148854205D0214821
:10193000854202D02048854200D100E000BF2088C7
:1019400050B92389A28861882846FFF795FDE18870
:10195000284600F0E8F925E0208804280AD12389E8
:10196000A28861882846FFF7C7FDE188284600F075
:10197000E3F917E0208808280AD12389A288618822
:101980002846FFF705FEE188284600F0E2F909E065
:101990002389A28861882846FFF742FEE18828460D
:1019A00000F0E0F970BD0000002C0140003401405F
:1019B0000004004000080040000C004000210180AD
:1019C0004180012181800021C180018170471AB1CD
:1019D00083890B43838102E083898B438381704732
:1019E00001894FF6F87211400181704770B50024EB
:1019F00000220023058C4FF6FE7635400584028CCC
:101A00008388048B4FF68F752C40B51E2C400D88B3
:101A10002C43751E2A400D892A434D882A43144DB4
:101A2000A8420BD0134DA84208D0134DA84205D0B0
:101A3000124DA84202D0124DA84213D14FF6F775AD
:101A40002A404D892A434FF6FB752A408D882A4348
:101A50004FF6FF652B404FF6FF552B408D892B43EA
:101A6000CD892B4383800483CD888586028470BD15
:101A7000002C01400034014000400140004401407E
:101A8000004801400A460021018C4FF6FD731940C1
:101A90001143018470470A460021018B4FF6F7730A
:101AA000194011430183704770B5002400220023C0
:101AB000058C4FF6EF7635400584028C8388048BC5
:101AC00048F6FF752C404FF6FF452C400D884FF629
:101AD000FF7606EA05252C434FF6DF752A400D896F
:101AE00006EA05152A434D8806EA05152A43154DD1
:101AF000A84202D0144DA8421DD14FF67F752A404E
:101B00004D894FF6FF7606EA05152A434FF6BF7555
:101B10002A408D8806EA05152A434FF6FF352B40EB
:101B20004FF2FF752B408D8906EA85052B43CD8941
:101B300006EA85052B4383800483CD8805870284CC
:101B400070BD0000002C0140003401400A46002115
:101B5000018C4FF6DF7319404FF6FF7303EA02134F
:101B60001943018470470A460021018B4FF2FF732D
:101B700019404FF6FF7303EA0223194301837047AC
:101B800070B5002400220023058C4FF6FF66354017
:101B90000584028C8388848B4FF68F752C404FF61A
:101BA000FC752C400D882C434FF6FF552A400D89BB
:101BB0004FF6FF7606EA05252A434D8806EA0525F5
:101BC0002A43154DA84202D0144DA8421DD14FF210
:101BD000FF752A404D894FF6FF7606EA05252A4310
:101BE0004FF6FF352A408D8806EA05252A434EF632
:101BF000FF752B404DF6FF752B408D8906EA0515C4
:101C00002B43CD8906EA05152B4383808483CD8839
:101C10008587028470BD0000002C01400034014023
:101C20000A460021018C4FF6FF5319404FF6FF730F
:101C300003EA02231943018470470A460021818B7D
:101C40004FF6F773194011438183704770B5002236
:101C500000230024058C4EF6FF7635400584038C66
:101C60008488828B48F6FF752A404FF6FF452A404C
:101C70000D884FF6FF7606EA05252A434DF6FF75D7
:101C80002B400D8906EA05352B434D8806EA0535BC
:101C90002B430B4DA84202D00A4DA84208D14BF667
:101CA000FF752C408D894FF6FF7606EA85152C438B
:101CB00084808283CD88A0F84050038470BD0000EA
:101CC000002C0140003401400A460021018C4DF6F1
:101CD000FF7319404FF6FF7303EA0233194301847F
:101CE00070470A460021818B4FF2FF7319404FF66F
:101CF000FF7303EA022319438183704700210180A7
:101D000041808180C180018141818181C181704791
:101D1000818670470187704781877047A0F840101F
:101D2000704781847047028B4FF6F3731A40028329
:101D3000028B0A4302837047028B4FF2FF331A4033
:101D40000283028B4FF6FF7303EA01231A430283D7
:101D50007047828B4FF6F3731A408283828B0A435B
:101D600082837047828B4FF2FF331A408283828BCB
:101D70004FF6FF7303EA01231A4382837047000082
:101D8000002202881D4B98420ED01D4B98420BD06A
:101D9000B0F1804F08D01B4B984205D01A4B9842A7
:101DA00002D01A4B984204D14FF68F731A404B88D9
:101DB0001A43174B984207D0164B984204D04FF65F
:101DC000FF431A40CB881A4302808B8883850B8897
:101DD00003850A4B98420BD0094B984208D00E4B12
:101DE000984205D00D4B984202D00D4B984201D13C
:101DF0000B7A03860123838270470000002C014088
:101E0000003401400004004000080040000C004085
:101E10000010004000140040004001400044014018
:101E20000048014070B540F22551624800F0FAF8D0
:101E300000281BD040F225515E4800F0D8F85D48DC
:101E400000F0ACF9C5B25C48007880B92C2D0ED1F9
:101E5000012059490870594801780078401C574AB8
:101E60001070574820F81150FEF73CFFA1E052488F
:101E7000007801280ED1122D0CD102204E49087095
:101E80004E4801780078401C4C4A10704C4820F8AD
:101E900011508EE04848007802284BD1474801781D
:101EA0000078401C454A1070454820F811501046F3
:101EB00000780A2801DA5B2D7BD103203E490870A7
:101EC0000120404908703D480078401F3C4911F806
:101ED00010003D49087039480078001F384911F852
:101EE00010003A49087035480078C01E344911F88E
:101EF0001000374908700846017836480078401DC0
:101F0000814206DC32480078401D32490978884217
:101F100003DA304800782E4908702D4800782D49A2
:101F2000087026480078801E254911F810002A49BB
:101F300008703EE02048007803282BD11F48007825
:101F4000401E1F4931F810005B2813D1002240F2D7
:101F50002551184800F090F800201A4908701749D8
:101F6000087015490870012240F22551114800F00F
:101F700083F81EE000201049087010490870002402
:101F800005E000200E4921F81400601CC4B20A2CA0
:101F9000F7DB0EE0002008490870084908700024AB
:101FA00005E00020064921F81400601CC4B20A2C88
:101FB000F7DB70BD004400401A000020190000202B
:101FC000B80000201B000020140000201500002095
:101FD00016000020180000201700002001F40072F5
:101FE000B2F5007F00D100BFCA430280704710B530
:101FF0000022002340F66A14A14200D100BF0A1259
:1020000001249440A3B2DC43048010BD21B1828935
:1020100042F40052828104E082894DF6FF731A4037
:102020008281704770B502460024002300250020FD
:1020300040F66A16B14200D100BFC1F3421501F06B
:102040001F03012606FA03F3012D02D196893340BE
:1020500006E0022D02D1168A334001E0968A334011
:102060000C12012606FA04F41688344013B10CB1A0
:10207000012000E0002070BDF0B5034600240026DA
:102080000025002040F66A17B94200D100BF18466B
:10209000C1F3421401F01F06012707FA06F5012CCF
:1020A00001D10C3004E0022C01D1103000E01430DA
:1020B0001AB107682F43076002E00768AF43076063
:1020C000F0BD00002DE9F04786B005460E4600241D
:1020D000A24600BFA1460027B08900B100BF2F462D
:1020E0002C8A4CF6FF700440F08804432C82AC89A3
:1020F0004EF6F3100440B0883189084371890843D3
:102100000443AC81AC8A4FF6FF400440B0890443DD
:10211000AC8201A8FFF76CF81F48874202D1DDF8B6
:1021200010A001E0DDF80CA0A88900F4004040B147
:102130000AEBCA0000EB0A1031684900B0FBF1F865
:1021400007E00AEBCA0000EB0A1031688900B0FB17
:10215000F1F86420B8FBF0F004012009642101FBD0
:102160001089A88900F4004040B1322000EBC9007A
:10217000B0FBF1F000F00700044308E0322000EB70
:1021800009106421B0FBF1F000F00F0004432C8132
:1021900006B0BDE8F087000000380140014688889D
:1021A000C0F308007047000000B587B00121480463
:1021B000FEF7FEFF01210420FFF70AF80420ADF826
:1021C000180003208DF81A0018208DF81B0006A9AE
:1021D0001E48FEF7F1F90820ADF8180004208DF82C
:1021E0001B0006A91948FEF7E7F926208DF8040020
:1021F00000208DF8050001208DF806008DF80700FD
:1022000001A8FEF72DFD4FF4E13002900020ADF85B
:102210000C00ADF80E00ADF81000ADF814000C2065
:10222000ADF8120002A90A48FFF74CFF012240F264
:1022300025510748FFF720FF01210548FFF7E6FE7B
:1022400040210348FFF7CAFE07B000BD0008014067
:102250000044004000BFFEE72DE9FC5F04460D4648
:1022600016461F46DFF8AC80A8192B4908602B489A
:10227000006800F049FD4146019000F0A5FD82464E
:102280002548006800F040FD414601904FF07E5027
:1022900000F070FE0090019900F096FD83465146D3
:1022A00000F0C6FB814600F0F3FC1D4908600846BB
:1022B00000681A4908601A48006800F025FD824647
:1022C000214600F057FE814600F0E2FC1449086008
:1022D0000021384600F04EFE019012480168019836
:1022E00000F072FD82460E48006800F00DFD01907E
:1022F0000D480168019800F067FD8346514600F0E3
:1023000097FB814600F0C4FC084908600846006855
:10231000BDE8FC9F3333333F8C0000209400002045
:1023200090000020700000206C0000208800002039
:10233000014800787047000017000020FEF768FD94
:10234000FFF732FFFEF7AAFAFEF736F8FEF7C0FEF7
:10235000FEF7C4FBFEF71CF8FEF78FFE2948FFF7D7
:102360002DF84EE00020284908802848006800F039
:10237000ABFC04460223224601210846FEF7F4FD89
:1023800002232348027804210120FEF7EDFD0223F9
:102390002048B0F9002007210120FEF707FE0323A3
:1023A0001D48B0F9002001210220FEF7FFFD0323A4
:1023B0001A48B0F9002006210220FEF7F7FD184860
:1023C000006800F081FC04460323224601211846E0
:1023D000FEF7CAFD04231348012102681846FEF7E0
:1023E000C3FD02231048027806210420FEF7BCFD3D
:1023F00002230E48027809210420FEF7B5FDFEF7FE
:10240000A1FAAFE760000020B400002038000020EF
:1024100030000020360000204A0000204C00002040
:10242000500000205C00002031000020A8000020A7
:102430002DE9FE4F04460D4600200290284600F08C
:1024400063FC82464FF07E5100F0BEFC8146184985
:1024500000F0BAFC8046174900F058FB06460027FA
:10246000002C04DD144801904042009006E0002C4E
:1024700004DA41F2B0300190404200900CE001A932
:102480006846FEF7A3FA0A20FDF7DEFE4FF07E5104
:10249000384600F0CDFA07463146384600F060FC79
:1024A000EDD302A902A8FEF791FABDE8FE8F000065
:1024B000008022440000B44350ECFFFF0148007844
:1024C000704700001400002021F00042A2F1605289
:1024D000B2F5801F01F0004328BFD2F17F6C0BD909
:1024E0005FEA001C43EAC20242EB507018BF70471B
:1024F00028BF20F001007047B2F5801FBCBF18460E
:1025000070474FEA410C1CF5001F02D2084600F04C
:1025100022BD70B500F00CFA00000089FFF7F6BF8D
:102520004FF00040A0F58000704700002DE9C04149
:1025300030B4DFF8A0C23CEA111418BF3CEA13140F
:1025400000F0EC8081EA03051CEA111444EAD5741A
:1025500018BF1CEA131500F0C780A4EB05044FF068
:10256000004545EAC12145EAC32341EA505143EA07
:10257000525304F17F74994204F500344FEAC020AD
:102580004FEAC22208BF904200F09C804FEA1365D8
:102590000FF24016765D4FEA134506FB05F7C7F1CB
:1025A000807706FB07F74FEAD737A7FB0368764229
:1025B000C8F58038A7FB06CE38BFA8F1010807FB95
:1025C00008E64FF0000EA6FB028CE6FB03CEDCF122
:1025D000000CCEF1004E38BFAEF1010EA6FB0C5838
:1025E0004FF000074FF00005E6FB0E87A1FB08C681
:1025F000A0FB07CE16EB0E0645F10005E1FB0765D3
:1026000015F1E04E7EBFA4F580345FEA46066D41C9
:1026100016F1800745F100054FEA17274FEA0666D5
:1026200047EA0567A6F1DE46B6F1805F4FEA152559
:102630001FD9384624F0010C05EBC471BCF1FE6FC4
:1026400001EB0C1102D8F0BCBDE8008124425CBF54
:1026500001F5801E9EEAC47F02D4F0BCBDE8008173
:10266000244238D4F0BCA1F1C041BDE8004100F0E3
:10267000ADB94FEAD22242EA43524FEAD323A7FB35
:1026800002864FEAD02040EA415007FB03661EEA6B
:102690000E0F4FEAD12105FB026658BFA6EB00568C
:1026A000B6EB00564FEA520E4EEAC37E18EB0E0E02
:1026B00056EB530EBDD518EB02085E417F1C55F159
:1026C0000005B6E74FF480154FF000074FF0000605
:1026D0004FF00008ADE7F0BC4FF0000001F1C04141
:1026E00001F00041BDE8008111EA0C1F0CEA13154E
:1026F00000D00CE013EA0C1F00F025804FF0000022
:10270000F0BC81EA030101F00041BDE80081F0BCAA
:10271000BDE8004181EA030100F058B9F0BCBDE812
:10272000004170B500F004F9097EFC3E00F007B8E6
:1027300081EA03014FF0000001F00041704781EA97
:10274000030100F043B9F0BCBDE800414FF00000C8
:1027500021497047FFFDFBF9F7F5F4F2F0EEEDEBE0
:10276000E9E8E6E4E3E1E0DEDDDBDAD8D7D5D4D38F
:10277000D1D0CFCDCCCBCAC8C7C6C5C4C2C1C0BFDB
:10278000BEBDBCBBBAB9B8B7B6B5B4B3B2B1B0AFE1
:10279000AEADACABAAA9A8A8A7A6A5A4A3A3A2A1C5
:1027A000A09F9F9E9D9C9C9B9A9999989797969580
:1027B00095949393929191908F8F8E8E8D8C8C8B1C
:1027C0008B8A8989888887878685858484838382A4
:1027D000828181800000FF070000F87FDFF848C198
:1027E00070B51CEA111E1EBF1CEA13159EEA0C0FE1
:1027F00095EA0C0F00F06F8081EA030423EA4C1382
:102800004EEAD47E21EA4C1141F4801143F4801346
:10281000AE44A1FB024CA0FB0365AEF17F7E3619EE
:1028200055EB0C05A1FB034C4CF10003A0FB021C73
:1028300016EB0C06654153F10003094218BF46F040
:10284000010613F4007F0BD14FEA03314FEA053044
:10285000340341EA155140EA16506FF003020AE0D2
:102860004FEAC3214FEAC520F40241EA555140EA3C
:1028700056506FF0020202EB2E4201EB025585EA40
:10288000CE710AD05FEA440C18BF24F0004450F126
:10289000000041F1000120EAD47040F2FE7C624564
:1028A00000D270BDA84214BF4FF080444FF04044A6
:1028B000002E08BF0024BEF1806FA8BFA1F1C04167
:1028C000BDE8704080F282804FF0000001F1C0410D
:1028D00001F0004170479EEA0C0F0CEA131518BF77
:1028E00095EA0C0F06D04FF0000081EA030E0EF0BF
:1028F000004170BD00F01CF88900013E00F007B8EF
:1029000000F009B84FEA430C5FEA5C5C08D081EA4A
:10291000030100F05BB84FEA410C5FEA5C5CF6D162
:102920004FF00000014970470000FF070000F87FEA
:102930000EF1020E2EF0030E5EF8046B364205D443
:10294000012A43EB030515F5001F12D8012841EBBE
:10295000010C1CF5001F0CD80ED14FEAD17C15F5E7
:10296000001F0CEB4C0C0CF1020C08BF4CEBD37CA1
:1029700004E04FF0080C01E04FEAD37C0CEB4C056F
:1029800026FA05F606F00706B6F1040C06D20EEBA1
:10299000860CBDE870404CF0010C6047DFE80CF09D
:1029A000090B02024FF000414FF00000A1F5002199
:1029B00070BD19461046012851EB010418BFD4F52B
:1029C000001484BF002001F0004170BD0808A0F58C
:1029D00000114FEA3101704743004FEAD30C4FEA30
:1029E0003C0C43401FBF40070CF1605113F0FE4FF9
:1029F00070471CF0006F03D100200CF000417047BD
:102A00000CF0004343EA507010B540EACC0000F0EF
:102A10005CFA00BF000000924FEA0001FFF7D6BF4A
:102A20004FF000414FF00000A1F500217047000079
:102A300090EA010F48BF81F0004100F1A282421AE2
:102A40003CBF801A89184FEAD0524FF07F4C1CEAE5
:102A5000410FA2EBD15318BF9CEA026F00F03B80FC
:102A60004FF0004C4CEA00204CEA012121FA03FC13
:102A700010EB0C0C1ED202F1FF325FEA1C2040EB7F
:102A8000C25038BF70471CF07F0F4FEA400C18BF90
:102A9000BCF17F4F38BF7047C3F12003994008BF96
:102AA00020F00100BCF17F4F38BF7047A0F1C0405B
:102AB00000F051BA4FEA3C00000A40EBC25028BF78
:102AC0001CF0FF0F4FEA400CE6D018BFBCF17F4F5F
:102AD00038BF7047EAE79CEA026F05D010EA5C0F46
:102AE00008BF00F00040704710B500F0EEF900BFDD
:102AF00064FBBE3E401058BFC0F14040491058BF73
:102B0000C1F140418142EFF3008070474FF47F0CE8
:102B10001CEAD0121EBF1CEAD11392EA0C0F93EAF2
:102B20000C0F00F0858090EA010F48BF42F48072DC
:102B300040F4000C41F400002CF07F4120F07F4075
:102B400000B58142A2EB03020FF2081CACEB504E21
:102B5000C0F100009EF800E04FEA4E0E00FB0EFCB4
:102B600038BF49004FEA2C1C02F5FA020CFB0EF3A9
:102B70004FEACE1E4FEA112C4FEAC1210EEB635EE5
:102B800042EB22420EFB0CFC4FEA1C5300FB0311EC
:102B90004FEA112C4FEA01310EFB0CFC4FEADC4CE2
:102BA00000FB0C11C14228BF09184CEB03335DF840
:102BB00004EB10EB410143EBC250B2F57C0F38BF80
:102BC000704729D512F0F00F1CBF00F1C04000F093
:102BD00000407047008182838485868788898B8C3A
:102BE0008D8E8F919293959697999A9C9D9FA0A276
:102BF000A3A5A7A8AAACAEB0B2B3B5B7B9BCBEC0C6
:102C0000C2C5C7C9CCCED1D4D7D9DCDFE2E6E9EC66
:102C1000F0F3F7FAFE0000004FEA400C0CF1807C64
:102C2000BCF17E4F28BF7047B0F1C04000F093B9AF
:102C300090EA010F0CEAD11348BF42F4807262455A
:102C400038BF634507D213F47F0F16D080EA010026
:102C500000F00040704710B500F037F9097EFC3EE7
:102C600000F005B880EA010000F00040704780EAFB
:102C7000010000F0004000F06EB912F47F0F04BFB5
:102C80000248704780EA010000F065B90000C07F8B
:102C900041000B0ED3F19E0208D950F400034FEA15
:102CA000032323FA02F048BF4042704710B500F0FA
:102CB0000CF900BF49922480002070476FF0004259
:102CC00082EA200070470000C10DD1F19E0206DBB0
:102CD0004FEA002343F0004323FA02F0704700421A
:102CE00007D54FEA4001B1F1FE4F02D24FF000008C
:102CF000704710B500F0E9F8499224800020704731
:102D00006FEA20007047000010F0004148BF4042C9
:102D1000B0FA80F310FA03F2C3F19D030BD051EA2D
:102D2000C35101EB1220530638BF704700F1010078
:102D300008BF20F001007047B0FA80F310FA03F2E8
:102D4000C3F19D030AD0D90501EB1220530638BF09
:102D5000704700F1010008BF20F00100704700003B
:102D600050EA010C00F113801CF5000F58BFBCF5B0
:102D7000000F01D48842704707D710F5000F58BFE5
:102D800011F5000F15D488427047894270471CF531
:102D9000000F04D5BCF5000FF7D5814270474FF006
:102DA000807C1CEB400F38BF1CEB410F01D28142ED
:102DB000704710B500F089F8922449004FF0005098
:102DC0004FF08051FFF796BE4FF47F0C1CEAD012F3
:102DD0001EBF1CEAD11392EA0C0F93EA0C0F00F00D
:102DE000478090EA010F48BF42F480724FF0004CD8
:102DF0004CEA00204CEA012102EB0302A0FB011384
:102E0000A2F50002002918BF43F001035B0028BFB0
:102E10004FEA330342EB22425FEA132C4CEBC250E1
:102E20002EBFBCEB436FB2F57C0F70474FEA036CCB
:102E3000BCF1004F08BF20F00100B2F57C0F38BF95
:102E400070470BD582F0FF0212F5803FC8BF704774
:102E500000F1C040D8BF00F00040704700F5000C02
:102E60005FEA4C0C48BF7047B0F1C04000F073B847
:102E700090EA010F0CEAD11348BF42F48072624518
:102E800038BF634504D280EA010000F0004070477B
:102E900010B500F01AF800BF8900013E00F007B835
:102EA00000F009B85FEA410C5FEA1C6C08D080EAC8
:102EB000010000F050B85FEA400C5FEA1C6CF6D1EC
:102EC0004FF00040A0F5800070470EF1020E2EF08A
:102ED000030E5EF8044B244204D44FEA4102B2F1DF
:102EE0007F4F11D84FEA4003B3F17F4F0CD80ED17A
:102EF0004FEAD07CB2F17F4F0CEB4C0C0CF1020C82
:102F000008BF4CEBD17C04E04FF0080C01E04FEA25
:102F1000D17C0CEB4C0324FA03F404F00704B4F165
:102F2000040C06D20EEB840CBDE810404CF0010CF2
:102F30006047DFE80CF0070802024FF00040A0F500
:102F4000800010BD0846420018BFD2F1807288BFD1
:102F500000F0004010BDFF2141EAD050C00570478D
:102F600080F0004090EA010F7FF569AD81F00041EB
:102F700000F007B890EA010F48BF81F000413FF52B
:102F80005EAD421A04D882F00042A0EB0200114468
:102F90004FEAD0524FF07F4C1CEA410FA2EBD153C5
:102FA00018BF9CEA026F4AD04FF0004C4CEA002058
:102FB0004CEA012121FA03FCB0EB0C0C0FD412F007
:102FC000FE0F36D05FEA4C001DD5001240EBC25018
:102FD00038BF70471CF03F0F18BF70470BE0A2F1DD
:102FE00001025FEA1C2040EBC25038BF70471CF062
:102FF0007F0F18BF7047C3F12003994014BF401ED4
:1030000020F00100704780084FEA122308BF704784
:10301000B0FA80FCA2EB0C02CCF1280C60FA0CF0A8
:1030200093EA122F04BF00EBC25070474FEAC370FF
:103030007047130A5FEADC1008BF7047F6E79CEAA6
:10304000026F04D010EA5C0F08BF0020704710B573
:10305000FFF73BFF40DFF63E81F000407047000085
:103060000000000000000000000000000000000060
:1030700000F80000000000000033300000000010E5
:103080000C06100C0600000000000000000040C00C
:103090007840C0784000043F04043F0404000070FE
:1030A00088FC08300000001820FF211E0000F008F6
:1030B000F000E018000000211C031E211E0000F09B
:1030C0000888700000001E212324192721101016E3
:1030D0000E000000000000000000000000000000E2
:1030E00000E0180402000000000718204000000261
:1030F0000418E000000000402018070000004040D5
:1031000080F0804040000202010F01020200000036
:1031100000F0000000000101011F0101010000009A
:1031200000000000000080B07000000000000000FF
:103130000000000000000001010101010101000088
:10314000000000000000003030000000000000001F
:10315000000080601804006018060100000000E014
:1031600010080810E000000F102020100F000010C1
:1031700010F8000000000020203F20200000007018
:103180000808088870000030282422213000003010
:103190000888884830000018202020110E00000008
:1031A000C02010F8000000070424243F240000F889
:1031B0000888880808000019212020110E0000E06E
:1031C000108888180000000F112020110E00003810
:1031D0000808C83808000000003F00000000007028
:1031E000880808887000001C222121221C0000E0B1
:1031F00010080810E0000000312222110F0000002A
:1032000000C0C000000000000030300000000000DE
:10321000008000000000000080600000000000004E
:1032200080402010080000010204081020004040E7
:10323000404040404000040404040404040000082A
:1032400010204080000000201008040201000070DF
:1032500048080808F0000000003036010000C030C7
:10326000C828E810E0000718272423140B000000EA
:10327000C038E0000000203C23020227382008F874
:10328000888888700000203F202020110E00C03068
:10329000080808083800071820202010080008F83F
:1032A00008080810E000203F202020100F0008F838
:1032B0008888E8081000203F20202320180008F804
:1032C0008888E8081000203F200003000000C0307C
:1032D00008080838000007182020221E020008F8FD
:1032E00008000008F808203F210101213F200008C4
:1032F00008F8080800000020203F202000000000FF
:103300000808F8080800C08080807F00000008F8E6
:1033100088C028180800203F20012638200008F81F
:10332000080000000000203F20202020300008F886
:10333000F800F8F80800203F003F003F200008F8A0
:1033400030C00008F808203F200007183F00E010B8
:1033500008080810E0000F10202020100F0008F8C7
:1033600008080808F000203F210101010000E010DA
:1033700008080810E0000F18242438504F0008F8FF
:10338000888888887000203F2000030C302000705F
:103390008808080838000038202121221C0018085D
:1033A00008F8080818000000203F2000000008F876
:1033B00008000008F808001F202020201F000878BF
:1033C000880000C83808000007380E010000F8081F
:1033D00000F80008F800033C0700073C0300081849
:1033E00068808068180820302C03032C30200838AF
:1033F000C800C83808000000203F20000000100866
:103400000808C838080020382621202018000000AD
:1034100000FE020202000000007F40404000000C5D
:1034200030C000000000000000010638C0000002AB
:103430000202FE000000004040407F00000000004B
:10344000040202020400000000000000000000006E
:10345000000000000000808080808080808000026A
:103460000204000000000000000000000000000056
:103470008080808000000019242222223F2008F84A
:10348000008080000000003F112020110E0000008D
:10349000008080800000000E11202020110000001C
:1034A00000808088F800000E112020103F200000CE
:1034B000808080800000001F2222222213000080D2
:1034C00080F0888888180020203F2020000000001D
:1034D000808080808000006B94949493600008F852
:1034E000008080800000203F210000203F200080DD
:1034F0009898000000000020203F202000000000DD
:1035000000809898000000C08080807F000008F84C
:10351000000080808000203F24022D302000000821
:1035200008F8000000000020203F202000008080DC
:10353000808080808000203F20003F20003F8080EE
:10354000008080800000203F210000203F200000FC
:10355000808080800000001F202020201F008080AD
:1035600000808000000080FFA12020110E000000DC
:10357000008080808000000E112020A0FF808080CD
:1035800080008080800020203F212000010000007A
:10359000808080808000003324242424190000804F
:1035A00080E0808000000000001F2020000080805C
:1035B000000000808000001F202020103F2080801D
:1035C00080000080808000010E30080601008080AD
:1035D0000080008080800F300C030C300F000080D2
:1035E0008000808080000020312E0E3120008080FD
:1035F00080000080808080818E701806010000802D
:103600008080808080000021302C2221300000004A
:103610000000807C020200000000003F40400000EB
:103620000000FF00000000000000FF00000000029A
:10363000027C800000000040403F000000000006C7
:10364000010102020404000000000000000000006C
:103650007036000800000020B800000028010008B3
:1036600028370008B8000020780600004401000850
:103670000000000001020304010203040607080918
:10368000020406080000C800C80000000000000096
:10369000000000000000000000000000000000002A
:1036A0000100000000000000000000000000000019
:1036B000000000000000000000000000000000000A
:1036C00000000000000000000000000000000000FA
:1036D000000000000000C8420000000000000000E0
:1036E00000000000000000000000000000000000DA
:1036F00000000000000000000000000000000000CA
:1037000000000000000000000000000000000000B9
:10371000000000000000000000000000201C00006D
:08372000E0E3FFFF00000000E0
:04000005080000ED02
:00000001FF
